{"contracts/Student.sol":{"StudentContract":{"abi":[{"inputs":[],"stateMutability":"nonpayable","type":"constructor"},{"anonymous":false,"inputs":[{"indexed":false,"internalType":"string","name":"message","type":"string"}],"name":"Success","type":"event"},{"inputs":[{"internalType":"string","name":"courseName","type":"string"},{"internalType":"uint256","name":"courseFee","type":"uint256"}],"name":"addCourse","outputs":[],"stateMutability":"nonpayable","type":"function"},{"inputs":[{"internalType":"uint256","name":"_studentId","type":"uint256"},{"internalType":"uint256","name":"grade","type":"uint256"},{"internalType":"uint256","name":"courseIndex","type":"uint256"}],"name":"addGrades","outputs":[],"stateMutability":"nonpayable","type":"function"},{"inputs":[{"internalType":"string","name":"studentName","type":"string"},{"internalType":"string","name":"_studentAddress","type":"string"},{"internalType":"uint256","name":"studentAge","type":"uint256"},{"internalType":"uint256","name":"studentNumber","type":"uint256"}],"name":"addStudent","outputs":[],"stateMutability":"nonpayable","type":"function"},{"inputs":[{"internalType":"uint256","name":"_studentId","type":"uint256"},{"internalType":"uint256","name":"_courseId","type":"uint256"}],"name":"assignCourse","outputs":[],"stateMutability":"nonpayable","type":"function"},{"inputs":[{"internalType":"uint256","name":"_studentId","type":"uint256"}],"name":"checkTotalFee","outputs":[{"internalType":"uint256","name":"","type":"uint256"}],"stateMutability":"view","type":"function"},{"inputs":[],"name":"courseId","outputs":[{"internalType":"uint256","name":"","type":"uint256"}],"stateMutability":"view","type":"function"},{"inputs":[{"internalType":"uint256","name":"","type":"uint256"}],"name":"courses","outputs":[{"internalType":"uint256","name":"id","type":"uint256"},{"internalType":"string","name":"name","type":"string"},{"internalType":"uint256","name":"fee","type":"uint256"}],"stateMutability":"view","type":"function"},{"inputs":[],"name":"getAllStudents","outputs":[{"components":[{"internalType":"string","name":"name","type":"string"},{"internalType":"string","name":"studentaddress","type":"string"},{"internalType":"uint256","name":"age","type":"uint256"},{"internalType":"uint256","name":"number","type":"uint256"},{"internalType":"uint256","name":"id","type":"uint256"},{"internalType":"uint256[]","name":"courses","type":"uint256[]"},{"internalType":"uint256[]","name":"grades","type":"uint256[]"},{"internalType":"uint256[]","name":"attendance","type":"uint256[]"},{"internalType":"bool","name":"feeStatus","type":"bool"}],"internalType":"struct StudentContract.StudentData[]","name":"","type":"tuple[]"}],"stateMutability":"view","type":"function"},{"inputs":[{"internalType":"uint256","name":"_studentId","type":"uint256"}],"name":"getAssignedCourses","outputs":[{"internalType":"uint256[]","name":"","type":"uint256[]"}],"stateMutability":"view","type":"function"},{"inputs":[{"internalType":"uint256","name":"_studentId","type":"uint256"}],"name":"getAssignedCoursesWithGrades","outputs":[{"internalType":"uint256[]","name":"","type":"uint256[]"},{"internalType":"uint256[]","name":"","type":"uint256[]"}],"stateMutability":"view","type":"function"},{"inputs":[],"name":"getContractBalance","outputs":[{"internalType":"uint256","name":"","type":"uint256"}],"stateMutability":"view","type":"function"},{"inputs":[{"internalType":"uint256","name":"_studentId","type":"uint256"}],"name":"getStudent","outputs":[{"components":[{"internalType":"string","name":"name","type":"string"},{"internalType":"string","name":"studentaddress","type":"string"},{"internalType":"uint256","name":"age","type":"uint256"},{"internalType":"uint256","name":"number","type":"uint256"},{"internalType":"uint256","name":"id","type":"uint256"},{"internalType":"uint256[]","name":"courses","type":"uint256[]"},{"internalType":"uint256[]","name":"grades","type":"uint256[]"},{"internalType":"uint256[]","name":"attendance","type":"uint256[]"},{"internalType":"bool","name":"feeStatus","type":"bool"}],"internalType":"struct StudentContract.StudentData","name":"","type":"tuple"}],"stateMutability":"view","type":"function"},{"inputs":[{"internalType":"uint256","name":"_studentId","type":"uint256"},{"internalType":"uint256","name":"_attendance","type":"uint256"},{"internalType":"uint256","name":"courseIndex","type":"uint256"}],"name":"markAttendance","outputs":[],"stateMutability":"nonpayable","type":"function"},{"inputs":[{"internalType":"uint256","name":"_studentId","type":"uint256"}],"name":"payCoursesFees","outputs":[],"stateMutability":"payable","type":"function"},{"inputs":[],"name":"studentId","outputs":[{"internalType":"uint256","name":"","type":"uint256"}],"stateMutability":"view","type":"function"},{"inputs":[{"internalType":"uint256","name":"","type":"uint256"}],"name":"studentPayments","outputs":[{"internalType":"uint256","name":"","type":"uint256"}],"stateMutability":"view","type":"function"},{"inputs":[{"internalType":"uint256","name":"","type":"uint256"}],"name":"students","outputs":[{"internalType":"string","name":"name","type":"string"},{"internalType":"string","name":"studentaddress","type":"string"},{"internalType":"uint256","name":"age","type":"uint256"},{"internalType":"uint256","name":"number","type":"uint256"},{"internalType":"uint256","name":"id","type":"uint256"},{"internalType":"bool","name":"feeStatus","type":"bool"}],"stateMutability":"view","type":"function"},{"inputs":[],"name":"viewCourses","outputs":[{"components":[{"internalType":"uint256","name":"id","type":"uint256"},{"internalType":"string","name":"name","type":"string"},{"internalType":"uint256","name":"fee","type":"uint256"}],"internalType":"struct StudentContract.Course[]","name":"","type":"tuple[]"}],"stateMutability":"view","type":"function"}],"evm":{"bytecode":{"linkReferences":{},"object":"608060405234801561001057600080fd5b50336000806101000a81548173ffffffffffffffffffffffffffffffffffffffff021916908373ffffffffffffffffffffffffffffffffffffffff160217905550613404806100606000396000f3fe6080604052600436106101095760003560e01c806378529ead11610095578063bab0a35011610064578063bab0a35014610396578063bf452c59146103d3578063d1b06f7d146103fc578063d72a94f914610418578063e9e309271461045657610109565b806378529ead146102d85780637b487c57146103015780638d85c1411461032c57806396f979d21461035757610109565b80632449dc4d116100dc5780632449dc4d146101cb578063642f916314610208578063669c3bd2146102455780636e0f634b146102825780636f9fb98a146102ad57610109565b80630247ce571461010e57806306ead22e146101375780630d83015a14610179578063164d95dd146101a2575b600080fd5b34801561011a57600080fd5b5061013560048036038101906101309190612157565b610481565b005b34801561014357600080fd5b5061015e600480360381019061015991906121b3565b610711565b60405161017096959493929190612289565b60405180910390f35b34801561018557600080fd5b506101a0600480360381019061019b91906122f8565b61087a565b005b3480156101ae57600080fd5b506101c960048036038101906101c49190612338565b610ac8565b005b3480156101d757600080fd5b506101f260048036038101906101ed91906121b3565b610bf0565b6040516101ff919061238b565b60405180910390f35b34801561021457600080fd5b5061022f600480360381019061022a91906121b3565b610ccb565b60405161023c919061259e565b60405180910390f35b34801561025157600080fd5b5061026c600480360381019061026791906121b3565b6110cd565b604051610279919061262f565b60405180910390f35b34801561028e57600080fd5b506102976111a1565b6040516102a4919061238b565b60405180910390f35b3480156102b957600080fd5b506102c26111a7565b6040516102cf919061238b565b60405180910390f35b3480156102e457600080fd5b506102ff60048036038101906102fa9190612651565b6111af565b005b34801561030d57600080fd5b50610316611574565b604051610323919061238b565b60405180910390f35b34801561033857600080fd5b5061034161157a565b60405161034e9190612802565b60405180910390f35b34801561036357600080fd5b5061037e600480360381019061037991906121b3565b61167f565b60405161038d93929190612824565b60405180910390f35b3480156103a257600080fd5b506103bd60048036038101906103b891906121b3565b611741565b6040516103ca919061238b565b60405180910390f35b3480156103df57600080fd5b506103fa60048036038101906103f59190612338565b611759565b005b610416600480360381019061041191906121b3565b611881565b005b34801561042457600080fd5b5061043f600480360381019061043a91906121b3565b611af9565b60405161044d929190612862565b60405180910390f35b34801561046257600080fd5b5061046b611c4a565b6040516104789190612a3c565b60405180910390f35b600080600090505b6002805490508110156105b457836040516020016104a79190612a9a565b60405160208183030381529060405280519060200120600282815481106104d1576104d0612ab1565b5b90600052602060002090600302016001016040516020016104f29190612bd8565b60405160208183030381529060405280519060200120036105a1576002818154811061052157610520612ab1565b5b9060005260206000209060030201600001549150826002828154811061054a57610549612ab1565b5b9060005260206000209060030201600201540361059c576040517f08c379a000000000000000000000000000000000000000000000000000000000815260040161059390612c87565b60405180910390fd5b6105b4565b80806105ac90612cd6565b915050610489565b50600081146106435760005b60028054905081101561063d5781600282815481106105e2576105e1612ab1565b5b9060005260206000209060030201600001540361062a57826002828154811061060e5761060d612ab1565b5b906000526020600020906003020160020181905550505061070d565b808061063590612cd6565b9150506105c0565b5061070b565b6005600081548092919061065690612cd6565b919050555060006040518060600160405280600554815260200185815260200184815250905060028190806001815401808255809150506001900390600052602060002090600302016000909190919091506000820151816000015560208201518160010190816106c79190612eb5565b506040820151816002015550507f166b96a382dc3abc86ba052ca9c020cfd7022d2d3059e868918a3d20779e41cc60405161070190612fd3565b60405180910390a1505b505b5050565b6001818154811061072157600080fd5b906000526020600020906009020160009150905080600001805461074490612b0f565b80601f016020809104026020016040519081016040528092919081815260200182805461077090612b0f565b80156107bd5780601f10610792576101008083540402835291602001916107bd565b820191906000526020600020905b8154815290600101906020018083116107a057829003601f168201915b5050505050908060010180546107d290612b0f565b80601f01602080910402602001604051908101604052809291908181526020018280546107fe90612b0f565b801561084b5780601f106108205761010080835404028352916020019161084b565b820191906000526020600020905b81548152906001019060200180831161082e57829003601f168201915b5050505050908060020154908060030154908060040154908060080160009054906101000a900460ff16905086565b600080600090505b6001805490508110156108d65783600182815481106108a4576108a3612ab1565b5b906000526020600020906009020160040154036108c3578091506108d6565b80806108ce90612cd6565b915050610882565b5060005b600182815481106108ee576108ed612ab1565b5b9060005260206000209060090201600501805490508110156109a757826001838154811061091f5761091e612ab1565b5b9060005260206000209060090201600501828154811061094257610941612ab1565b5b906000526020600020015403610994576000610993576040517f08c379a000000000000000000000000000000000000000000000000000000000815260040161098a90613065565b60405180910390fd5b5b808061099f90612cd6565b9150506108da565b50600181815481106109bc576109bb612ab1565b5b906000526020600020906009020160050182908060018154018082558091505060019003906000526020600020016000909190919091505560018181548110610a0857610a07612ab1565b5b90600052602060002090600902016006016000908060018154018082558091505060019003906000526020600020016000909190919091505560018181548110610a5557610a54612ab1565b5b9060005260206000209060090201600701600090806001815401808255809150506001900390600052602060002001600090919091909150557f166b96a382dc3abc86ba052ca9c020cfd7022d2d3059e868918a3d20779e41cc604051610abb906130d1565b60405180910390a1505050565b60008054906101000a900473ffffffffffffffffffffffffffffffffffffffff1673ffffffffffffffffffffffffffffffffffffffff163373ffffffffffffffffffffffffffffffffffffffff1614610b2057600080fd5b60005b600180549050811015610bea578360018281548110610b4557610b44612ab1565b5b90600052602060002090600902016004015403610bd75760018181548110610b7057610b6f612ab1565b5b9060005260206000209060090201600501805490508210610b9057600080fd5b8260018281548110610ba557610ba4612ab1565b5b90600052602060002090600902016006018381548110610bc857610bc7612ab1565b5b90600052602060002001819055505b8080610be290612cd6565b915050610b23565b50505050565b6000806000905060005b600180549050811015610cc1578360018281548110610c1c57610c1b612ab1565b5b90600052602060002090600902016004015403610cae5760005b60018281548110610c4a57610c49612ab1565b5b906000526020600020906009020160050180549050811015610cac5760028281548110610c7a57610c79612ab1565b5b90600052602060002090600302016002015483610c9791906130f1565b92508080610ca490612cd6565b915050610c36565b505b8080610cb990612cd6565b915050610bfa565b5080915050919050565b610cd3611f0f565b60005b6001805490508110156110c6578260018281548110610cf857610cf7612ab1565b5b906000526020600020906009020160040154036110b357600060405180610120016040528060018481548110610d3157610d30612ab1565b5b90600052602060002090600902016000018054610d4d90612b0f565b80601f0160208091040260200160405190810160405280929190818152602001828054610d7990612b0f565b8015610dc65780601f10610d9b57610100808354040283529160200191610dc6565b820191906000526020600020905b815481529060010190602001808311610da957829003601f168201915b5050505050815260200160018481548110610de457610de3612ab1565b5b90600052602060002090600902016001018054610e0090612b0f565b80601f0160208091040260200160405190810160405280929190818152602001828054610e2c90612b0f565b8015610e795780601f10610e4e57610100808354040283529160200191610e79565b820191906000526020600020905b815481529060010190602001808311610e5c57829003601f168201915b5050505050815260200160018481548110610e9757610e96612ab1565b5b906000526020600020906009020160020154815260200160018481548110610ec257610ec1612ab1565b5b906000526020600020906009020160030154815260200160018481548110610eed57610eec612ab1565b5b906000526020600020906009020160040154815260200160018481548110610f1857610f17612ab1565b5b9060005260206000209060090201600501805480602002602001604051908101604052809291908181526020018280548015610f7357602002820191906000526020600020905b815481526020019060010190808311610f5f575b5050505050815260200160018481548110610f9157610f90612ab1565b5b9060005260206000209060090201600601805480602002602001604051908101604052809291908181526020018280548015610fec57602002820191906000526020600020905b815481526020019060010190808311610fd8575b505050505081526020016001848154811061100a57611009612ab1565b5b906000526020600020906009020160070180548060200260200160405190810160405280929190818152602001828054801561106557602002820191906000526020600020905b815481526020019060010190808311611051575b505050505081526020016001848154811061108357611082612ab1565b5b906000526020600020906009020160080160009054906101000a900460ff161515815250905080925050506110c8565b80806110be90612cd6565b915050610cd6565b505b919050565b606060005b60018054905081101561119a5782600182815481106110f4576110f3612ab1565b5b90600052602060002090600902016004015403611187576001818154811061111f5761111e612ab1565b5b906000526020600020906009020160050180548060200260200160405190810160405280929190818152602001828054801561117a57602002820191906000526020600020905b815481526020019060010190808311611166575b505050505091505061119c565b808061119290612cd6565b9150506110d2565b505b919050565b60055481565b600047905090565b6000848484846040516020016111c89493929190613146565b6040516020818303038152906040528051906020012090506000600180549050905060005b8181101561130f57826001828154811061120a57611209612ab1565b5b90600052602060002090600902016000016001838154811061122f5761122e612ab1565b5b90600052602060002090600902016001016001848154811061125457611253612ab1565b5b9060005260206000209060090201600201546001858154811061127a57611279612ab1565b5b90600052602060002090600902016003015460405160200161129f949392919061318c565b60405160208183030381529060405280519060200120036112fc5760006112fb576040517f08c379a00000000000000000000000000000000000000000000000000000000081526004016112f29061326a565b60405180910390fd5b5b808061130790612cd6565b9150506111ed565b506004600081548092919061132390612cd6565b919050555060016040518061012001604052808881526020018781526020018681526020018581526020016004548152602001600067ffffffffffffffff81111561137157611370611ff6565b5b60405190808252806020026020018201604052801561139f5781602001602082028036833780820191505090505b508152602001600067ffffffffffffffff8111156113c0576113bf611ff6565b5b6040519080825280602002602001820160405280156113ee5781602001602082028036833780820191505090505b508152602001600067ffffffffffffffff81111561140f5761140e611ff6565b5b60405190808252806020026020018201604052801561143d5781602001602082028036833780820191505090505b50815260200160001515815250908060018154018082558091505060019003906000526020600020906009020160009091909190915060008201518160000190816114889190612eb5565b50602082015181600101908161149e9190612eb5565b5060408201518160020155606082015181600301556080820151816004015560a08201518160050190805190602001906114d9929190611f5d565b5060c08201518160060190805190602001906114f6929190611f5d565b5060e0820151816007019080519060200190611513929190611f5d565b506101008201518160080160006101000a81548160ff02191690831515021790555050507f166b96a382dc3abc86ba052ca9c020cfd7022d2d3059e868918a3d20779e41cc604051611564906132d6565b60405180910390a1505050505050565b60045481565b60606002805480602002602001604051908101604052809291908181526020016000905b828210156116765783829060005260206000209060030201604051806060016040529081600082015481526020016001820180546115db90612b0f565b80601f016020809104026020016040519081016040528092919081815260200182805461160790612b0f565b80156116545780601f1061162957610100808354040283529160200191611654565b820191906000526020600020905b81548152906001019060200180831161163757829003601f168201915b505050505081526020016002820154815250508152602001906001019061159e565b50505050905090565b6002818154811061168f57600080fd5b90600052602060002090600302016000915090508060000154908060010180546116b890612b0f565b80601f01602080910402602001604051908101604052809291908181526020018280546116e490612b0f565b80156117315780601f1061170657610100808354040283529160200191611731565b820191906000526020600020905b81548152906001019060200180831161171457829003601f168201915b5050505050908060020154905083565b60036020528060005260406000206000915090505481565b60008054906101000a900473ffffffffffffffffffffffffffffffffffffffff1673ffffffffffffffffffffffffffffffffffffffff163373ffffffffffffffffffffffffffffffffffffffff16146117b157600080fd5b60005b60018054905081101561187b5783600182815481106117d6576117d5612ab1565b5b90600052602060002090600902016004015403611868576001818154811061180157611800612ab1565b5b906000526020600020906009020160050180549050821061182157600080fd5b826001828154811061183657611835612ab1565b5b9060005260206000209060090201600701838154811061185957611858612ab1565b5b90600052602060002001819055505b808061187390612cd6565b9150506117b4565b50505050565b60008080600090505b6001805490508110156118de5783600182815481106118ac576118ab612ab1565b5b906000526020600020906009020160040154036118cb578091506118de565b80806118d690612cd6565b91505061188a565b5060005b600182815481106118f6576118f5612ab1565b5b9060005260206000209060090201600501805490508110156119f45760006001838154811061192857611927612ab1565b5b9060005260206000209060090201600501828154811061194b5761194a612ab1565b5b9060005260206000200154905060005b6002805490508110156119df57816002828154811061197d5761197c612ab1565b5b906000526020600020906003020160000154036119cc57600281815481106119a8576119a7612ab1565b5b906000526020600020906003020160020154856119c591906130f1565b94506119df565b80806119d790612cd6565b91505061195b565b505080806119ec90612cd6565b9150506118e2565b50813414611a37576040517f08c379a0000000000000000000000000000000000000000000000000000000008152600401611a2e90613342565b60405180910390fd5b813410611ab5576001808281548110611a5357611a52612ab1565b5b906000526020600020906009020160080160006101000a81548160ff0219169083151502179055507f166b96a382dc3abc86ba052ca9c020cfd7022d2d3059e868918a3d20779e41cc604051611aa8906133ae565b60405180910390a1611af4565b600060018281548110611acb57611aca612ab1565b5b906000526020600020906009020160080160006101000a81548160ff0219169083151502179055505b505050565b60608060005b600180549050811015611c43578360018281548110611b2157611b20612ab1565b5b90600052602060002090600902016004015403611c305760018181548110611b4c57611b4b612ab1565b5b906000526020600020906009020160050160018281548110611b7157611b70612ab1565b5b906000526020600020906009020160060181805480602002602001604051908101604052809291908181526020018280548015611bcd57602002820191906000526020600020905b815481526020019060010190808311611bb9575b5050505050915080805480602002602001604051908101604052809291908181526020018280548015611c1f57602002820191906000526020600020905b815481526020019060010190808311611c0b575b505050505090509250925050611c45565b8080611c3b90612cd6565b915050611aff565b505b915091565b60606001805480602002602001604051908101604052809291908181526020016000905b82821015611f06578382906000526020600020906009020160405180610120016040529081600082018054611ca290612b0f565b80601f0160208091040260200160405190810160405280929190818152602001828054611cce90612b0f565b8015611d1b5780601f10611cf057610100808354040283529160200191611d1b565b820191906000526020600020905b815481529060010190602001808311611cfe57829003601f168201915b50505050508152602001600182018054611d3490612b0f565b80601f0160208091040260200160405190810160405280929190818152602001828054611d6090612b0f565b8015611dad5780601f10611d8257610100808354040283529160200191611dad565b820191906000526020600020905b815481529060010190602001808311611d9057829003601f168201915b5050505050815260200160028201548152602001600382015481526020016004820154815260200160058201805480602002602001604051908101604052809291908181526020018280548015611e2357602002820191906000526020600020905b815481526020019060010190808311611e0f575b5050505050815260200160068201805480602002602001604051908101604052809291908181526020018280548015611e7b57602002820191906000526020600020905b815481526020019060010190808311611e67575b5050505050815260200160078201805480602002602001604051908101604052809291908181526020018280548015611ed357602002820191906000526020600020905b815481526020019060010190808311611ebf575b505050505081526020016008820160009054906101000a900460ff16151515158152505081526020019060010190611c6e565b50505050905090565b60405180610120016040528060608152602001606081526020016000815260200160008152602001600081526020016060815260200160608152602001606081526020016000151581525090565b828054828255906000526020600020908101928215611f99579160200282015b82811115611f98578251825591602001919060010190611f7d565b5b509050611fa69190611faa565b5090565b5b80821115611fc3576000816000905550600101611fab565b5090565b6000604051905090565b600080fd5b600080fd5b600080fd5b600080fd5b6000601f19601f8301169050919050565b7f4e487b7100000000000000000000000000000000000000000000000000000000600052604160045260246000fd5b61202e82611fe5565b810181811067ffffffffffffffff8211171561204d5761204c611ff6565b5b80604052505050565b6000612060611fc7565b905061206c8282612025565b919050565b600067ffffffffffffffff82111561208c5761208b611ff6565b5b61209582611fe5565b9050602081019050919050565b82818337600083830152505050565b60006120c46120bf84612071565b612056565b9050828152602081018484840111156120e0576120df611fe0565b5b6120eb8482856120a2565b509392505050565b600082601f83011261210857612107611fdb565b5b81356121188482602086016120b1565b91505092915050565b6000819050919050565b61213481612121565b811461213f57600080fd5b50565b6000813590506121518161212b565b92915050565b6000806040838503121561216e5761216d611fd1565b5b600083013567ffffffffffffffff81111561218c5761218b611fd6565b5b612198858286016120f3565b92505060206121a985828601612142565b9150509250929050565b6000602082840312156121c9576121c8611fd1565b5b60006121d784828501612142565b91505092915050565b600081519050919050565b600082825260208201905092915050565b60005b8381101561221a5780820151818401526020810190506121ff565b60008484015250505050565b6000612231826121e0565b61223b81856121eb565b935061224b8185602086016121fc565b61225481611fe5565b840191505092915050565b61226881612121565b82525050565b60008115159050919050565b6122838161226e565b82525050565b600060c08201905081810360008301526122a38189612226565b905081810360208301526122b78188612226565b90506122c6604083018761225f565b6122d3606083018661225f565b6122e0608083018561225f565b6122ed60a083018461227a565b979650505050505050565b6000806040838503121561230f5761230e611fd1565b5b600061231d85828601612142565b925050602061232e85828601612142565b9150509250929050565b60008060006060848603121561235157612350611fd1565b5b600061235f86828701612142565b935050602061237086828701612142565b925050604061238186828701612142565b9150509250925092565b60006020820190506123a0600083018461225f565b92915050565b600082825260208201905092915050565b60006123c2826121e0565b6123cc81856123a6565b93506123dc8185602086016121fc565b6123e581611fe5565b840191505092915050565b6123f981612121565b82525050565b600081519050919050565b600082825260208201905092915050565b6000819050602082019050919050565b600061243783836123f0565b60208301905092915050565b6000602082019050919050565b600061245b826123ff565b612465818561240a565b93506124708361241b565b8060005b838110156124a1578151612488888261242b565b975061249383612443565b925050600181019050612474565b5085935050505092915050565b6124b78161226e565b82525050565b60006101208301600083015184820360008601526124db82826123b7565b915050602083015184820360208601526124f582826123b7565b915050604083015161250a60408601826123f0565b50606083015161251d60608601826123f0565b50608083015161253060808601826123f0565b5060a083015184820360a08601526125488282612450565b91505060c083015184820360c08601526125628282612450565b91505060e083015184820360e086015261257c8282612450565b9150506101008301516125936101008601826124ae565b508091505092915050565b600060208201905081810360008301526125b881846124bd565b905092915050565b600082825260208201905092915050565b60006125dc826123ff565b6125e681856125c0565b93506125f18361241b565b8060005b83811015612622578151612609888261242b565b975061261483612443565b9250506001810190506125f5565b5085935050505092915050565b6000602082019050818103600083015261264981846125d1565b905092915050565b6000806000806080858703121561266b5761266a611fd1565b5b600085013567ffffffffffffffff81111561268957612688611fd6565b5b612695878288016120f3565b945050602085013567ffffffffffffffff8111156126b6576126b5611fd6565b5b6126c2878288016120f3565b93505060406126d387828801612142565b92505060606126e487828801612142565b91505092959194509250565b600081519050919050565b600082825260208201905092915050565b6000819050602082019050919050565b600060608301600083015161273460008601826123f0565b506020830151848203602086015261274c82826123b7565b915050604083015161276160408601826123f0565b508091505092915050565b6000612778838361271c565b905092915050565b6000602082019050919050565b6000612798826126f0565b6127a281856126fb565b9350836020820285016127b48561270c565b8060005b858110156127f057848403895281516127d1858261276c565b94506127dc83612780565b925060208a019950506001810190506127b8565b50829750879550505050505092915050565b6000602082019050818103600083015261281c818461278d565b905092915050565b6000606082019050612839600083018661225f565b818103602083015261284b8185612226565b905061285a604083018461225f565b949350505050565b6000604082019050818103600083015261287c81856125d1565b9050818103602083015261289081846125d1565b90509392505050565b600081519050919050565b600082825260208201905092915050565b6000819050602082019050919050565b60006101208301600083015184820360008601526128e382826123b7565b915050602083015184820360208601526128fd82826123b7565b915050604083015161291260408601826123f0565b50606083015161292560608601826123f0565b50608083015161293860808601826123f0565b5060a083015184820360a08601526129508282612450565b91505060c083015184820360c086015261296a8282612450565b91505060e083015184820360e08601526129848282612450565b91505061010083015161299b6101008601826124ae565b508091505092915050565b60006129b283836128c5565b905092915050565b6000602082019050919050565b60006129d282612899565b6129dc81856128a4565b9350836020820285016129ee856128b5565b8060005b85811015612a2a5784840389528151612a0b85826129a6565b9450612a16836129ba565b925060208a019950506001810190506129f2565b50829750879550505050505092915050565b60006020820190508181036000830152612a5681846129c7565b905092915050565b600081905092915050565b6000612a74826121e0565b612a7e8185612a5e565b9350612a8e8185602086016121fc565b80840191505092915050565b6000612aa68284612a69565b915081905092915050565b7f4e487b7100000000000000000000000000000000000000000000000000000000600052603260045260246000fd5b7f4e487b7100000000000000000000000000000000000000000000000000000000600052602260045260246000fd5b60006002820490506001821680612b2757607f821691505b602082108103612b3a57612b39612ae0565b5b50919050565b60008190508160005260206000209050919050565b60008154612b6281612b0f565b612b6c8186612a5e565b94506001821660008114612b875760018114612b9c57612bcf565b60ff1983168652811515820286019350612bcf565b612ba585612b40565b60005b83811015612bc757815481890152600182019150602081019050612ba8565b838801955050505b50505092915050565b6000612be48284612b55565b915081905092915050565b7f796f7520616c72656164792068617665207468697320636f7572736520616e6460008201527f20696620796f752077616e7420746f207570646174652069742773206665657360208201527f207468656e206368616e6765206974277320666565732e000000000000000000604082015250565b6000612c716057836121eb565b9150612c7c82612bef565b606082019050919050565b60006020820190508181036000830152612ca081612c64565b9050919050565b7f4e487b7100000000000000000000000000000000000000000000000000000000600052601160045260246000fd5b6000612ce182612121565b91507fffffffffffffffffffffffffffffffffffffffffffffffffffffffffffffffff8203612d1357612d12612ca7565b5b600182019050919050565b60006020601f8301049050919050565b600082821b905092915050565b600060088302612d6b7fffffffffffffffffffffffffffffffffffffffffffffffffffffffffffffffff82612d2e565b612d758683612d2e565b95508019841693508086168417925050509392505050565b6000819050919050565b6000612db2612dad612da884612121565b612d8d565b612121565b9050919050565b6000819050919050565b612dcc83612d97565b612de0612dd882612db9565b848454612d3b565b825550505050565b600090565b612df5612de8565b612e00818484612dc3565b505050565b5b81811015612e2457612e19600082612ded565b600181019050612e06565b5050565b601f821115612e6957612e3a81612b40565b612e4384612d1e565b81016020851015612e52578190505b612e66612e5e85612d1e565b830182612e05565b50505b505050565b600082821c905092915050565b6000612e8c60001984600802612e6e565b1980831691505092915050565b6000612ea58383612e7b565b9150826002028217905092915050565b612ebe826121e0565b67ffffffffffffffff811115612ed757612ed6611ff6565b5b612ee18254612b0f565b612eec828285612e28565b600060209050601f831160018114612f1f5760008415612f0d578287015190505b612f178582612e99565b865550612f7f565b601f198416612f2d86612b40565b60005b82811015612f5557848901518255600182019150602085019450602081019050612f30565b86831015612f725784890151612f6e601f891682612e7b565b8355505b6001600288020188555050505b505050505050565b7f436f7572736520616464207375636365737366756c6c79210000000000000000600082015250565b6000612fbd6018836121eb565b9150612fc882612f87565b602082019050919050565b60006020820190508181036000830152612fec81612fb0565b9050919050565b7f436f7572736520616c72656164792061737369676e656420746f20746865207360008201527f747564656e740000000000000000000000000000000000000000000000000000602082015250565b600061304f6026836121eb565b915061305a82612ff3565b604082019050919050565b6000602082019050818103600083015261307e81613042565b9050919050565b7f436f757273652061737369676e6564207375636365737366756c6c7900000000600082015250565b60006130bb601c836121eb565b91506130c682613085565b602082019050919050565b600060208201905081810360008301526130ea816130ae565b9050919050565b60006130fc82612121565b915061310783612121565b925082820190508082111561311f5761311e612ca7565b5b92915050565b6000819050919050565b61314061313b82612121565b613125565b82525050565b60006131528287612a69565b915061315e8286612a69565b915061316a828561312f565b60208201915061317a828461312f565b60208201915081905095945050505050565b60006131988287612b55565b91506131a48286612b55565b91506131b0828561312f565b6020820191506131c0828461312f565b60208201915081905095945050505050565b7f412073747564656e742077697468207468652073616d65206e616d652c20616460008201527f64726573732c206167652c20616e64206e756d62657220616c7265616479206560208201527f78697374732e0000000000000000000000000000000000000000000000000000604082015250565b60006132546046836121eb565b915061325f826131d2565b606082019050919050565b6000602082019050818103600083015261328381613247565b9050919050565b7f53747564656e7420616464207375636365737366756c6c792100000000000000600082015250565b60006132c06019836121eb565b91506132cb8261328a565b602082019050919050565b600060208201905081810360008301526132ef816132b3565b9050919050565b7f496e636f72726563742066656520616d6f756e74000000000000000000000000600082015250565b600061332c6014836121eb565b9150613337826132f6565b602082019050919050565b6000602082019050818103600083015261335b8161331f565b9050919050565b7f5061796d656e7420646f6e65207375636365737366756c6c7921000000000000600082015250565b6000613398601a836121eb565b91506133a382613362565b602082019050919050565b600060208201905081810360008301526133c78161338b565b905091905056fea2646970667358221220daa855f0538483be926344353b74dcff3047e59d1f8401947c0e7b247e9d2c1864736f6c63430008110033","opcodes":"PUSH1 0x80 PUSH1 0x40 MSTORE CALLVALUE DUP1 ISZERO PUSH2 0x10 JUMPI PUSH1 0x0 DUP1 REVERT JUMPDEST POP CALLER PUSH1 0x0 DUP1 PUSH2 0x100 EXP DUP2 SLOAD DUP2 PUSH20 0xFFFFFFFFFFFFFFFFFFFFFFFFFFFFFFFFFFFFFFFF MUL NOT AND SWAP1 DUP4 PUSH20 0xFFFFFFFFFFFFFFFFFFFFFFFFFFFFFFFFFFFFFFFF AND MUL OR SWAP1 SSTORE POP PUSH2 0x3404 DUP1 PUSH2 0x60 PUSH1 0x0 CODECOPY PUSH1 0x0 RETURN INVALID PUSH1 0x80 PUSH1 0x40 MSTORE PUSH1 0x4 CALLDATASIZE LT PUSH2 0x109 JUMPI PUSH1 0x0 CALLDATALOAD PUSH1 0xE0 SHR DUP1 PUSH4 0x78529EAD GT PUSH2 0x95 JUMPI DUP1 PUSH4 0xBAB0A350 GT PUSH2 0x64 JUMPI DUP1 PUSH4 0xBAB0A350 EQ PUSH2 0x396 JUMPI DUP1 PUSH4 0xBF452C59 EQ PUSH2 0x3D3 JUMPI DUP1 PUSH4 0xD1B06F7D EQ PUSH2 0x3FC JUMPI DUP1 PUSH4 0xD72A94F9 EQ PUSH2 0x418 JUMPI DUP1 PUSH4 0xE9E30927 EQ PUSH2 0x456 JUMPI PUSH2 0x109 JUMP JUMPDEST DUP1 PUSH4 0x78529EAD EQ PUSH2 0x2D8 JUMPI DUP1 PUSH4 0x7B487C57 EQ PUSH2 0x301 JUMPI DUP1 PUSH4 0x8D85C141 EQ PUSH2 0x32C JUMPI DUP1 PUSH4 0x96F979D2 EQ PUSH2 0x357 JUMPI PUSH2 0x109 JUMP JUMPDEST DUP1 PUSH4 0x2449DC4D GT PUSH2 0xDC JUMPI DUP1 PUSH4 0x2449DC4D EQ PUSH2 0x1CB JUMPI DUP1 PUSH4 0x642F9163 EQ PUSH2 0x208 JUMPI DUP1 PUSH4 0x669C3BD2 EQ PUSH2 0x245 JUMPI DUP1 PUSH4 0x6E0F634B EQ PUSH2 0x282 JUMPI DUP1 PUSH4 0x6F9FB98A EQ PUSH2 0x2AD JUMPI PUSH2 0x109 JUMP JUMPDEST DUP1 PUSH4 0x247CE57 EQ PUSH2 0x10E JUMPI DUP1 PUSH4 0x6EAD22E EQ PUSH2 0x137 JUMPI DUP1 PUSH4 0xD83015A EQ PUSH2 0x179 JUMPI DUP1 PUSH4 0x164D95DD EQ PUSH2 0x1A2 JUMPI JUMPDEST PUSH1 0x0 DUP1 REVERT JUMPDEST CALLVALUE DUP1 ISZERO PUSH2 0x11A JUMPI PUSH1 0x0 DUP1 REVERT JUMPDEST POP PUSH2 0x135 PUSH1 0x4 DUP1 CALLDATASIZE SUB DUP2 ADD SWAP1 PUSH2 0x130 SWAP2 SWAP1 PUSH2 0x2157 JUMP JUMPDEST PUSH2 0x481 JUMP JUMPDEST STOP JUMPDEST CALLVALUE DUP1 ISZERO PUSH2 0x143 JUMPI PUSH1 0x0 DUP1 REVERT JUMPDEST POP PUSH2 0x15E PUSH1 0x4 DUP1 CALLDATASIZE SUB DUP2 ADD SWAP1 PUSH2 0x159 SWAP2 SWAP1 PUSH2 0x21B3 JUMP JUMPDEST PUSH2 0x711 JUMP JUMPDEST PUSH1 0x40 MLOAD PUSH2 0x170 SWAP7 SWAP6 SWAP5 SWAP4 SWAP3 SWAP2 SWAP1 PUSH2 0x2289 JUMP JUMPDEST PUSH1 0x40 MLOAD DUP1 SWAP2 SUB SWAP1 RETURN JUMPDEST CALLVALUE DUP1 ISZERO PUSH2 0x185 JUMPI PUSH1 0x0 DUP1 REVERT JUMPDEST POP PUSH2 0x1A0 PUSH1 0x4 DUP1 CALLDATASIZE SUB DUP2 ADD SWAP1 PUSH2 0x19B SWAP2 SWAP1 PUSH2 0x22F8 JUMP JUMPDEST PUSH2 0x87A JUMP JUMPDEST STOP JUMPDEST CALLVALUE DUP1 ISZERO PUSH2 0x1AE JUMPI PUSH1 0x0 DUP1 REVERT JUMPDEST POP PUSH2 0x1C9 PUSH1 0x4 DUP1 CALLDATASIZE SUB DUP2 ADD SWAP1 PUSH2 0x1C4 SWAP2 SWAP1 PUSH2 0x2338 JUMP JUMPDEST PUSH2 0xAC8 JUMP JUMPDEST STOP JUMPDEST CALLVALUE DUP1 ISZERO PUSH2 0x1D7 JUMPI PUSH1 0x0 DUP1 REVERT JUMPDEST POP PUSH2 0x1F2 PUSH1 0x4 DUP1 CALLDATASIZE SUB DUP2 ADD SWAP1 PUSH2 0x1ED SWAP2 SWAP1 PUSH2 0x21B3 JUMP JUMPDEST PUSH2 0xBF0 JUMP JUMPDEST PUSH1 0x40 MLOAD PUSH2 0x1FF SWAP2 SWAP1 PUSH2 0x238B JUMP JUMPDEST PUSH1 0x40 MLOAD DUP1 SWAP2 SUB SWAP1 RETURN JUMPDEST CALLVALUE DUP1 ISZERO PUSH2 0x214 JUMPI PUSH1 0x0 DUP1 REVERT JUMPDEST POP PUSH2 0x22F PUSH1 0x4 DUP1 CALLDATASIZE SUB DUP2 ADD SWAP1 PUSH2 0x22A SWAP2 SWAP1 PUSH2 0x21B3 JUMP JUMPDEST PUSH2 0xCCB JUMP JUMPDEST PUSH1 0x40 MLOAD PUSH2 0x23C SWAP2 SWAP1 PUSH2 0x259E JUMP JUMPDEST PUSH1 0x40 MLOAD DUP1 SWAP2 SUB SWAP1 RETURN JUMPDEST CALLVALUE DUP1 ISZERO PUSH2 0x251 JUMPI PUSH1 0x0 DUP1 REVERT JUMPDEST POP PUSH2 0x26C PUSH1 0x4 DUP1 CALLDATASIZE SUB DUP2 ADD SWAP1 PUSH2 0x267 SWAP2 SWAP1 PUSH2 0x21B3 JUMP JUMPDEST PUSH2 0x10CD JUMP JUMPDEST PUSH1 0x40 MLOAD PUSH2 0x279 SWAP2 SWAP1 PUSH2 0x262F JUMP JUMPDEST PUSH1 0x40 MLOAD DUP1 SWAP2 SUB SWAP1 RETURN JUMPDEST CALLVALUE DUP1 ISZERO PUSH2 0x28E JUMPI PUSH1 0x0 DUP1 REVERT JUMPDEST POP PUSH2 0x297 PUSH2 0x11A1 JUMP JUMPDEST PUSH1 0x40 MLOAD PUSH2 0x2A4 SWAP2 SWAP1 PUSH2 0x238B JUMP JUMPDEST PUSH1 0x40 MLOAD DUP1 SWAP2 SUB SWAP1 RETURN JUMPDEST CALLVALUE DUP1 ISZERO PUSH2 0x2B9 JUMPI PUSH1 0x0 DUP1 REVERT JUMPDEST POP PUSH2 0x2C2 PUSH2 0x11A7 JUMP JUMPDEST PUSH1 0x40 MLOAD PUSH2 0x2CF SWAP2 SWAP1 PUSH2 0x238B JUMP JUMPDEST PUSH1 0x40 MLOAD DUP1 SWAP2 SUB SWAP1 RETURN JUMPDEST CALLVALUE DUP1 ISZERO PUSH2 0x2E4 JUMPI PUSH1 0x0 DUP1 REVERT JUMPDEST POP PUSH2 0x2FF PUSH1 0x4 DUP1 CALLDATASIZE SUB DUP2 ADD SWAP1 PUSH2 0x2FA SWAP2 SWAP1 PUSH2 0x2651 JUMP JUMPDEST PUSH2 0x11AF JUMP JUMPDEST STOP JUMPDEST CALLVALUE DUP1 ISZERO PUSH2 0x30D JUMPI PUSH1 0x0 DUP1 REVERT JUMPDEST POP PUSH2 0x316 PUSH2 0x1574 JUMP JUMPDEST PUSH1 0x40 MLOAD PUSH2 0x323 SWAP2 SWAP1 PUSH2 0x238B JUMP JUMPDEST PUSH1 0x40 MLOAD DUP1 SWAP2 SUB SWAP1 RETURN JUMPDEST CALLVALUE DUP1 ISZERO PUSH2 0x338 JUMPI PUSH1 0x0 DUP1 REVERT JUMPDEST POP PUSH2 0x341 PUSH2 0x157A JUMP JUMPDEST PUSH1 0x40 MLOAD PUSH2 0x34E SWAP2 SWAP1 PUSH2 0x2802 JUMP JUMPDEST PUSH1 0x40 MLOAD DUP1 SWAP2 SUB SWAP1 RETURN JUMPDEST CALLVALUE DUP1 ISZERO PUSH2 0x363 JUMPI PUSH1 0x0 DUP1 REVERT JUMPDEST POP PUSH2 0x37E PUSH1 0x4 DUP1 CALLDATASIZE SUB DUP2 ADD SWAP1 PUSH2 0x379 SWAP2 SWAP1 PUSH2 0x21B3 JUMP JUMPDEST PUSH2 0x167F JUMP JUMPDEST PUSH1 0x40 MLOAD PUSH2 0x38D SWAP4 SWAP3 SWAP2 SWAP1 PUSH2 0x2824 JUMP JUMPDEST PUSH1 0x40 MLOAD DUP1 SWAP2 SUB SWAP1 RETURN JUMPDEST CALLVALUE DUP1 ISZERO PUSH2 0x3A2 JUMPI PUSH1 0x0 DUP1 REVERT JUMPDEST POP PUSH2 0x3BD PUSH1 0x4 DUP1 CALLDATASIZE SUB DUP2 ADD SWAP1 PUSH2 0x3B8 SWAP2 SWAP1 PUSH2 0x21B3 JUMP JUMPDEST PUSH2 0x1741 JUMP JUMPDEST PUSH1 0x40 MLOAD PUSH2 0x3CA SWAP2 SWAP1 PUSH2 0x238B JUMP JUMPDEST PUSH1 0x40 MLOAD DUP1 SWAP2 SUB SWAP1 RETURN JUMPDEST CALLVALUE DUP1 ISZERO PUSH2 0x3DF JUMPI PUSH1 0x0 DUP1 REVERT JUMPDEST POP PUSH2 0x3FA PUSH1 0x4 DUP1 CALLDATASIZE SUB DUP2 ADD SWAP1 PUSH2 0x3F5 SWAP2 SWAP1 PUSH2 0x2338 JUMP JUMPDEST PUSH2 0x1759 JUMP JUMPDEST STOP JUMPDEST PUSH2 0x416 PUSH1 0x4 DUP1 CALLDATASIZE SUB DUP2 ADD SWAP1 PUSH2 0x411 SWAP2 SWAP1 PUSH2 0x21B3 JUMP JUMPDEST PUSH2 0x1881 JUMP JUMPDEST STOP JUMPDEST CALLVALUE DUP1 ISZERO PUSH2 0x424 JUMPI PUSH1 0x0 DUP1 REVERT JUMPDEST POP PUSH2 0x43F PUSH1 0x4 DUP1 CALLDATASIZE SUB DUP2 ADD SWAP1 PUSH2 0x43A SWAP2 SWAP1 PUSH2 0x21B3 JUMP JUMPDEST PUSH2 0x1AF9 JUMP JUMPDEST PUSH1 0x40 MLOAD PUSH2 0x44D SWAP3 SWAP2 SWAP1 PUSH2 0x2862 JUMP JUMPDEST PUSH1 0x40 MLOAD DUP1 SWAP2 SUB SWAP1 RETURN JUMPDEST CALLVALUE DUP1 ISZERO PUSH2 0x462 JUMPI PUSH1 0x0 DUP1 REVERT JUMPDEST POP PUSH2 0x46B PUSH2 0x1C4A JUMP JUMPDEST PUSH1 0x40 MLOAD PUSH2 0x478 SWAP2 SWAP1 PUSH2 0x2A3C JUMP JUMPDEST PUSH1 0x40 MLOAD DUP1 SWAP2 SUB SWAP1 RETURN JUMPDEST PUSH1 0x0 DUP1 PUSH1 0x0 SWAP1 POP JUMPDEST PUSH1 0x2 DUP1 SLOAD SWAP1 POP DUP2 LT ISZERO PUSH2 0x5B4 JUMPI DUP4 PUSH1 0x40 MLOAD PUSH1 0x20 ADD PUSH2 0x4A7 SWAP2 SWAP1 PUSH2 0x2A9A JUMP JUMPDEST PUSH1 0x40 MLOAD PUSH1 0x20 DUP2 DUP4 SUB SUB DUP2 MSTORE SWAP1 PUSH1 0x40 MSTORE DUP1 MLOAD SWAP1 PUSH1 0x20 ADD KECCAK256 PUSH1 0x2 DUP3 DUP2 SLOAD DUP2 LT PUSH2 0x4D1 JUMPI PUSH2 0x4D0 PUSH2 0x2AB1 JUMP JUMPDEST JUMPDEST SWAP1 PUSH1 0x0 MSTORE PUSH1 0x20 PUSH1 0x0 KECCAK256 SWAP1 PUSH1 0x3 MUL ADD PUSH1 0x1 ADD PUSH1 0x40 MLOAD PUSH1 0x20 ADD PUSH2 0x4F2 SWAP2 SWAP1 PUSH2 0x2BD8 JUMP JUMPDEST PUSH1 0x40 MLOAD PUSH1 0x20 DUP2 DUP4 SUB SUB DUP2 MSTORE SWAP1 PUSH1 0x40 MSTORE DUP1 MLOAD SWAP1 PUSH1 0x20 ADD KECCAK256 SUB PUSH2 0x5A1 JUMPI PUSH1 0x2 DUP2 DUP2 SLOAD DUP2 LT PUSH2 0x521 JUMPI PUSH2 0x520 PUSH2 0x2AB1 JUMP JUMPDEST JUMPDEST SWAP1 PUSH1 0x0 MSTORE PUSH1 0x20 PUSH1 0x0 KECCAK256 SWAP1 PUSH1 0x3 MUL ADD PUSH1 0x0 ADD SLOAD SWAP2 POP DUP3 PUSH1 0x2 DUP3 DUP2 SLOAD DUP2 LT PUSH2 0x54A JUMPI PUSH2 0x549 PUSH2 0x2AB1 JUMP JUMPDEST JUMPDEST SWAP1 PUSH1 0x0 MSTORE PUSH1 0x20 PUSH1 0x0 KECCAK256 SWAP1 PUSH1 0x3 MUL ADD PUSH1 0x2 ADD SLOAD SUB PUSH2 0x59C JUMPI PUSH1 0x40 MLOAD PUSH32 0x8C379A000000000000000000000000000000000000000000000000000000000 DUP2 MSTORE PUSH1 0x4 ADD PUSH2 0x593 SWAP1 PUSH2 0x2C87 JUMP JUMPDEST PUSH1 0x40 MLOAD DUP1 SWAP2 SUB SWAP1 REVERT JUMPDEST PUSH2 0x5B4 JUMP JUMPDEST DUP1 DUP1 PUSH2 0x5AC SWAP1 PUSH2 0x2CD6 JUMP JUMPDEST SWAP2 POP POP PUSH2 0x489 JUMP JUMPDEST POP PUSH1 0x0 DUP2 EQ PUSH2 0x643 JUMPI PUSH1 0x0 JUMPDEST PUSH1 0x2 DUP1 SLOAD SWAP1 POP DUP2 LT ISZERO PUSH2 0x63D JUMPI DUP2 PUSH1 0x2 DUP3 DUP2 SLOAD DUP2 LT PUSH2 0x5E2 JUMPI PUSH2 0x5E1 PUSH2 0x2AB1 JUMP JUMPDEST JUMPDEST SWAP1 PUSH1 0x0 MSTORE PUSH1 0x20 PUSH1 0x0 KECCAK256 SWAP1 PUSH1 0x3 MUL ADD PUSH1 0x0 ADD SLOAD SUB PUSH2 0x62A JUMPI DUP3 PUSH1 0x2 DUP3 DUP2 SLOAD DUP2 LT PUSH2 0x60E JUMPI PUSH2 0x60D PUSH2 0x2AB1 JUMP JUMPDEST JUMPDEST SWAP1 PUSH1 0x0 MSTORE PUSH1 0x20 PUSH1 0x0 KECCAK256 SWAP1 PUSH1 0x3 MUL ADD PUSH1 0x2 ADD DUP2 SWAP1 SSTORE POP POP POP PUSH2 0x70D JUMP JUMPDEST DUP1 DUP1 PUSH2 0x635 SWAP1 PUSH2 0x2CD6 JUMP JUMPDEST SWAP2 POP POP PUSH2 0x5C0 JUMP JUMPDEST POP PUSH2 0x70B JUMP JUMPDEST PUSH1 0x5 PUSH1 0x0 DUP2 SLOAD DUP1 SWAP3 SWAP2 SWAP1 PUSH2 0x656 SWAP1 PUSH2 0x2CD6 JUMP JUMPDEST SWAP2 SWAP1 POP SSTORE POP PUSH1 0x0 PUSH1 0x40 MLOAD DUP1 PUSH1 0x60 ADD PUSH1 0x40 MSTORE DUP1 PUSH1 0x5 SLOAD DUP2 MSTORE PUSH1 0x20 ADD DUP6 DUP2 MSTORE PUSH1 0x20 ADD DUP5 DUP2 MSTORE POP SWAP1 POP PUSH1 0x2 DUP2 SWAP1 DUP1 PUSH1 0x1 DUP2 SLOAD ADD DUP1 DUP3 SSTORE DUP1 SWAP2 POP POP PUSH1 0x1 SWAP1 SUB SWAP1 PUSH1 0x0 MSTORE PUSH1 0x20 PUSH1 0x0 KECCAK256 SWAP1 PUSH1 0x3 MUL ADD PUSH1 0x0 SWAP1 SWAP2 SWAP1 SWAP2 SWAP1 SWAP2 POP PUSH1 0x0 DUP3 ADD MLOAD DUP2 PUSH1 0x0 ADD SSTORE PUSH1 0x20 DUP3 ADD MLOAD DUP2 PUSH1 0x1 ADD SWAP1 DUP2 PUSH2 0x6C7 SWAP2 SWAP1 PUSH2 0x2EB5 JUMP JUMPDEST POP PUSH1 0x40 DUP3 ADD MLOAD DUP2 PUSH1 0x2 ADD SSTORE POP POP PUSH32 0x166B96A382DC3ABC86BA052CA9C020CFD7022D2D3059E868918A3D20779E41CC PUSH1 0x40 MLOAD PUSH2 0x701 SWAP1 PUSH2 0x2FD3 JUMP JUMPDEST PUSH1 0x40 MLOAD DUP1 SWAP2 SUB SWAP1 LOG1 POP JUMPDEST POP JUMPDEST POP POP JUMP JUMPDEST PUSH1 0x1 DUP2 DUP2 SLOAD DUP2 LT PUSH2 0x721 JUMPI PUSH1 0x0 DUP1 REVERT JUMPDEST SWAP1 PUSH1 0x0 MSTORE PUSH1 0x20 PUSH1 0x0 KECCAK256 SWAP1 PUSH1 0x9 MUL ADD PUSH1 0x0 SWAP2 POP SWAP1 POP DUP1 PUSH1 0x0 ADD DUP1 SLOAD PUSH2 0x744 SWAP1 PUSH2 0x2B0F JUMP JUMPDEST DUP1 PUSH1 0x1F ADD PUSH1 0x20 DUP1 SWAP2 DIV MUL PUSH1 0x20 ADD PUSH1 0x40 MLOAD SWAP1 DUP2 ADD PUSH1 0x40 MSTORE DUP1 SWAP3 SWAP2 SWAP1 DUP2 DUP2 MSTORE PUSH1 0x20 ADD DUP3 DUP1 SLOAD PUSH2 0x770 SWAP1 PUSH2 0x2B0F JUMP JUMPDEST DUP1 ISZERO PUSH2 0x7BD JUMPI DUP1 PUSH1 0x1F LT PUSH2 0x792 JUMPI PUSH2 0x100 DUP1 DUP4 SLOAD DIV MUL DUP4 MSTORE SWAP2 PUSH1 0x20 ADD SWAP2 PUSH2 0x7BD JUMP JUMPDEST DUP3 ADD SWAP2 SWAP1 PUSH1 0x0 MSTORE PUSH1 0x20 PUSH1 0x0 KECCAK256 SWAP1 JUMPDEST DUP2 SLOAD DUP2 MSTORE SWAP1 PUSH1 0x1 ADD SWAP1 PUSH1 0x20 ADD DUP1 DUP4 GT PUSH2 0x7A0 JUMPI DUP3 SWAP1 SUB PUSH1 0x1F AND DUP3 ADD SWAP2 JUMPDEST POP POP POP POP POP SWAP1 DUP1 PUSH1 0x1 ADD DUP1 SLOAD PUSH2 0x7D2 SWAP1 PUSH2 0x2B0F JUMP JUMPDEST DUP1 PUSH1 0x1F ADD PUSH1 0x20 DUP1 SWAP2 DIV MUL PUSH1 0x20 ADD PUSH1 0x40 MLOAD SWAP1 DUP2 ADD PUSH1 0x40 MSTORE DUP1 SWAP3 SWAP2 SWAP1 DUP2 DUP2 MSTORE PUSH1 0x20 ADD DUP3 DUP1 SLOAD PUSH2 0x7FE SWAP1 PUSH2 0x2B0F JUMP JUMPDEST DUP1 ISZERO PUSH2 0x84B JUMPI DUP1 PUSH1 0x1F LT PUSH2 0x820 JUMPI PUSH2 0x100 DUP1 DUP4 SLOAD DIV MUL DUP4 MSTORE SWAP2 PUSH1 0x20 ADD SWAP2 PUSH2 0x84B JUMP JUMPDEST DUP3 ADD SWAP2 SWAP1 PUSH1 0x0 MSTORE PUSH1 0x20 PUSH1 0x0 KECCAK256 SWAP1 JUMPDEST DUP2 SLOAD DUP2 MSTORE SWAP1 PUSH1 0x1 ADD SWAP1 PUSH1 0x20 ADD DUP1 DUP4 GT PUSH2 0x82E JUMPI DUP3 SWAP1 SUB PUSH1 0x1F AND DUP3 ADD SWAP2 JUMPDEST POP POP POP POP POP SWAP1 DUP1 PUSH1 0x2 ADD SLOAD SWAP1 DUP1 PUSH1 0x3 ADD SLOAD SWAP1 DUP1 PUSH1 0x4 ADD SLOAD SWAP1 DUP1 PUSH1 0x8 ADD PUSH1 0x0 SWAP1 SLOAD SWAP1 PUSH2 0x100 EXP SWAP1 DIV PUSH1 0xFF AND SWAP1 POP DUP7 JUMP JUMPDEST PUSH1 0x0 DUP1 PUSH1 0x0 SWAP1 POP JUMPDEST PUSH1 0x1 DUP1 SLOAD SWAP1 POP DUP2 LT ISZERO PUSH2 0x8D6 JUMPI DUP4 PUSH1 0x1 DUP3 DUP2 SLOAD DUP2 LT PUSH2 0x8A4 JUMPI PUSH2 0x8A3 PUSH2 0x2AB1 JUMP JUMPDEST JUMPDEST SWAP1 PUSH1 0x0 MSTORE PUSH1 0x20 PUSH1 0x0 KECCAK256 SWAP1 PUSH1 0x9 MUL ADD PUSH1 0x4 ADD SLOAD SUB PUSH2 0x8C3 JUMPI DUP1 SWAP2 POP PUSH2 0x8D6 JUMP JUMPDEST DUP1 DUP1 PUSH2 0x8CE SWAP1 PUSH2 0x2CD6 JUMP JUMPDEST SWAP2 POP POP PUSH2 0x882 JUMP JUMPDEST POP PUSH1 0x0 JUMPDEST PUSH1 0x1 DUP3 DUP2 SLOAD DUP2 LT PUSH2 0x8EE JUMPI PUSH2 0x8ED PUSH2 0x2AB1 JUMP JUMPDEST JUMPDEST SWAP1 PUSH1 0x0 MSTORE PUSH1 0x20 PUSH1 0x0 KECCAK256 SWAP1 PUSH1 0x9 MUL ADD PUSH1 0x5 ADD DUP1 SLOAD SWAP1 POP DUP2 LT ISZERO PUSH2 0x9A7 JUMPI DUP3 PUSH1 0x1 DUP4 DUP2 SLOAD DUP2 LT PUSH2 0x91F JUMPI PUSH2 0x91E PUSH2 0x2AB1 JUMP JUMPDEST JUMPDEST SWAP1 PUSH1 0x0 MSTORE PUSH1 0x20 PUSH1 0x0 KECCAK256 SWAP1 PUSH1 0x9 MUL ADD PUSH1 0x5 ADD DUP3 DUP2 SLOAD DUP2 LT PUSH2 0x942 JUMPI PUSH2 0x941 PUSH2 0x2AB1 JUMP JUMPDEST JUMPDEST SWAP1 PUSH1 0x0 MSTORE PUSH1 0x20 PUSH1 0x0 KECCAK256 ADD SLOAD SUB PUSH2 0x994 JUMPI PUSH1 0x0 PUSH2 0x993 JUMPI PUSH1 0x40 MLOAD PUSH32 0x8C379A000000000000000000000000000000000000000000000000000000000 DUP2 MSTORE PUSH1 0x4 ADD PUSH2 0x98A SWAP1 PUSH2 0x3065 JUMP JUMPDEST PUSH1 0x40 MLOAD DUP1 SWAP2 SUB SWAP1 REVERT JUMPDEST JUMPDEST DUP1 DUP1 PUSH2 0x99F SWAP1 PUSH2 0x2CD6 JUMP JUMPDEST SWAP2 POP POP PUSH2 0x8DA JUMP JUMPDEST POP PUSH1 0x1 DUP2 DUP2 SLOAD DUP2 LT PUSH2 0x9BC JUMPI PUSH2 0x9BB PUSH2 0x2AB1 JUMP JUMPDEST JUMPDEST SWAP1 PUSH1 0x0 MSTORE PUSH1 0x20 PUSH1 0x0 KECCAK256 SWAP1 PUSH1 0x9 MUL ADD PUSH1 0x5 ADD DUP3 SWAP1 DUP1 PUSH1 0x1 DUP2 SLOAD ADD DUP1 DUP3 SSTORE DUP1 SWAP2 POP POP PUSH1 0x1 SWAP1 SUB SWAP1 PUSH1 0x0 MSTORE PUSH1 0x20 PUSH1 0x0 KECCAK256 ADD PUSH1 0x0 SWAP1 SWAP2 SWAP1 SWAP2 SWAP1 SWAP2 POP SSTORE PUSH1 0x1 DUP2 DUP2 SLOAD DUP2 LT PUSH2 0xA08 JUMPI PUSH2 0xA07 PUSH2 0x2AB1 JUMP JUMPDEST JUMPDEST SWAP1 PUSH1 0x0 MSTORE PUSH1 0x20 PUSH1 0x0 KECCAK256 SWAP1 PUSH1 0x9 MUL ADD PUSH1 0x6 ADD PUSH1 0x0 SWAP1 DUP1 PUSH1 0x1 DUP2 SLOAD ADD DUP1 DUP3 SSTORE DUP1 SWAP2 POP POP PUSH1 0x1 SWAP1 SUB SWAP1 PUSH1 0x0 MSTORE PUSH1 0x20 PUSH1 0x0 KECCAK256 ADD PUSH1 0x0 SWAP1 SWAP2 SWAP1 SWAP2 SWAP1 SWAP2 POP SSTORE PUSH1 0x1 DUP2 DUP2 SLOAD DUP2 LT PUSH2 0xA55 JUMPI PUSH2 0xA54 PUSH2 0x2AB1 JUMP JUMPDEST JUMPDEST SWAP1 PUSH1 0x0 MSTORE PUSH1 0x20 PUSH1 0x0 KECCAK256 SWAP1 PUSH1 0x9 MUL ADD PUSH1 0x7 ADD PUSH1 0x0 SWAP1 DUP1 PUSH1 0x1 DUP2 SLOAD ADD DUP1 DUP3 SSTORE DUP1 SWAP2 POP POP PUSH1 0x1 SWAP1 SUB SWAP1 PUSH1 0x0 MSTORE PUSH1 0x20 PUSH1 0x0 KECCAK256 ADD PUSH1 0x0 SWAP1 SWAP2 SWAP1 SWAP2 SWAP1 SWAP2 POP SSTORE PUSH32 0x166B96A382DC3ABC86BA052CA9C020CFD7022D2D3059E868918A3D20779E41CC PUSH1 0x40 MLOAD PUSH2 0xABB SWAP1 PUSH2 0x30D1 JUMP JUMPDEST PUSH1 0x40 MLOAD DUP1 SWAP2 SUB SWAP1 LOG1 POP POP POP JUMP JUMPDEST PUSH1 0x0 DUP1 SLOAD SWAP1 PUSH2 0x100 EXP SWAP1 DIV PUSH20 0xFFFFFFFFFFFFFFFFFFFFFFFFFFFFFFFFFFFFFFFF AND PUSH20 0xFFFFFFFFFFFFFFFFFFFFFFFFFFFFFFFFFFFFFFFF AND CALLER PUSH20 0xFFFFFFFFFFFFFFFFFFFFFFFFFFFFFFFFFFFFFFFF AND EQ PUSH2 0xB20 JUMPI PUSH1 0x0 DUP1 REVERT JUMPDEST PUSH1 0x0 JUMPDEST PUSH1 0x1 DUP1 SLOAD SWAP1 POP DUP2 LT ISZERO PUSH2 0xBEA JUMPI DUP4 PUSH1 0x1 DUP3 DUP2 SLOAD DUP2 LT PUSH2 0xB45 JUMPI PUSH2 0xB44 PUSH2 0x2AB1 JUMP JUMPDEST JUMPDEST SWAP1 PUSH1 0x0 MSTORE PUSH1 0x20 PUSH1 0x0 KECCAK256 SWAP1 PUSH1 0x9 MUL ADD PUSH1 0x4 ADD SLOAD SUB PUSH2 0xBD7 JUMPI PUSH1 0x1 DUP2 DUP2 SLOAD DUP2 LT PUSH2 0xB70 JUMPI PUSH2 0xB6F PUSH2 0x2AB1 JUMP JUMPDEST JUMPDEST SWAP1 PUSH1 0x0 MSTORE PUSH1 0x20 PUSH1 0x0 KECCAK256 SWAP1 PUSH1 0x9 MUL ADD PUSH1 0x5 ADD DUP1 SLOAD SWAP1 POP DUP3 LT PUSH2 0xB90 JUMPI PUSH1 0x0 DUP1 REVERT JUMPDEST DUP3 PUSH1 0x1 DUP3 DUP2 SLOAD DUP2 LT PUSH2 0xBA5 JUMPI PUSH2 0xBA4 PUSH2 0x2AB1 JUMP JUMPDEST JUMPDEST SWAP1 PUSH1 0x0 MSTORE PUSH1 0x20 PUSH1 0x0 KECCAK256 SWAP1 PUSH1 0x9 MUL ADD PUSH1 0x6 ADD DUP4 DUP2 SLOAD DUP2 LT PUSH2 0xBC8 JUMPI PUSH2 0xBC7 PUSH2 0x2AB1 JUMP JUMPDEST JUMPDEST SWAP1 PUSH1 0x0 MSTORE PUSH1 0x20 PUSH1 0x0 KECCAK256 ADD DUP2 SWAP1 SSTORE POP JUMPDEST DUP1 DUP1 PUSH2 0xBE2 SWAP1 PUSH2 0x2CD6 JUMP JUMPDEST SWAP2 POP POP PUSH2 0xB23 JUMP JUMPDEST POP POP POP POP JUMP JUMPDEST PUSH1 0x0 DUP1 PUSH1 0x0 SWAP1 POP PUSH1 0x0 JUMPDEST PUSH1 0x1 DUP1 SLOAD SWAP1 POP DUP2 LT ISZERO PUSH2 0xCC1 JUMPI DUP4 PUSH1 0x1 DUP3 DUP2 SLOAD DUP2 LT PUSH2 0xC1C JUMPI PUSH2 0xC1B PUSH2 0x2AB1 JUMP JUMPDEST JUMPDEST SWAP1 PUSH1 0x0 MSTORE PUSH1 0x20 PUSH1 0x0 KECCAK256 SWAP1 PUSH1 0x9 MUL ADD PUSH1 0x4 ADD SLOAD SUB PUSH2 0xCAE JUMPI PUSH1 0x0 JUMPDEST PUSH1 0x1 DUP3 DUP2 SLOAD DUP2 LT PUSH2 0xC4A JUMPI PUSH2 0xC49 PUSH2 0x2AB1 JUMP JUMPDEST JUMPDEST SWAP1 PUSH1 0x0 MSTORE PUSH1 0x20 PUSH1 0x0 KECCAK256 SWAP1 PUSH1 0x9 MUL ADD PUSH1 0x5 ADD DUP1 SLOAD SWAP1 POP DUP2 LT ISZERO PUSH2 0xCAC JUMPI PUSH1 0x2 DUP3 DUP2 SLOAD DUP2 LT PUSH2 0xC7A JUMPI PUSH2 0xC79 PUSH2 0x2AB1 JUMP JUMPDEST JUMPDEST SWAP1 PUSH1 0x0 MSTORE PUSH1 0x20 PUSH1 0x0 KECCAK256 SWAP1 PUSH1 0x3 MUL ADD PUSH1 0x2 ADD SLOAD DUP4 PUSH2 0xC97 SWAP2 SWAP1 PUSH2 0x30F1 JUMP JUMPDEST SWAP3 POP DUP1 DUP1 PUSH2 0xCA4 SWAP1 PUSH2 0x2CD6 JUMP JUMPDEST SWAP2 POP POP PUSH2 0xC36 JUMP JUMPDEST POP JUMPDEST DUP1 DUP1 PUSH2 0xCB9 SWAP1 PUSH2 0x2CD6 JUMP JUMPDEST SWAP2 POP POP PUSH2 0xBFA JUMP JUMPDEST POP DUP1 SWAP2 POP POP SWAP2 SWAP1 POP JUMP JUMPDEST PUSH2 0xCD3 PUSH2 0x1F0F JUMP JUMPDEST PUSH1 0x0 JUMPDEST PUSH1 0x1 DUP1 SLOAD SWAP1 POP DUP2 LT ISZERO PUSH2 0x10C6 JUMPI DUP3 PUSH1 0x1 DUP3 DUP2 SLOAD DUP2 LT PUSH2 0xCF8 JUMPI PUSH2 0xCF7 PUSH2 0x2AB1 JUMP JUMPDEST JUMPDEST SWAP1 PUSH1 0x0 MSTORE PUSH1 0x20 PUSH1 0x0 KECCAK256 SWAP1 PUSH1 0x9 MUL ADD PUSH1 0x4 ADD SLOAD SUB PUSH2 0x10B3 JUMPI PUSH1 0x0 PUSH1 0x40 MLOAD DUP1 PUSH2 0x120 ADD PUSH1 0x40 MSTORE DUP1 PUSH1 0x1 DUP5 DUP2 SLOAD DUP2 LT PUSH2 0xD31 JUMPI PUSH2 0xD30 PUSH2 0x2AB1 JUMP JUMPDEST JUMPDEST SWAP1 PUSH1 0x0 MSTORE PUSH1 0x20 PUSH1 0x0 KECCAK256 SWAP1 PUSH1 0x9 MUL ADD PUSH1 0x0 ADD DUP1 SLOAD PUSH2 0xD4D SWAP1 PUSH2 0x2B0F JUMP JUMPDEST DUP1 PUSH1 0x1F ADD PUSH1 0x20 DUP1 SWAP2 DIV MUL PUSH1 0x20 ADD PUSH1 0x40 MLOAD SWAP1 DUP2 ADD PUSH1 0x40 MSTORE DUP1 SWAP3 SWAP2 SWAP1 DUP2 DUP2 MSTORE PUSH1 0x20 ADD DUP3 DUP1 SLOAD PUSH2 0xD79 SWAP1 PUSH2 0x2B0F JUMP JUMPDEST DUP1 ISZERO PUSH2 0xDC6 JUMPI DUP1 PUSH1 0x1F LT PUSH2 0xD9B JUMPI PUSH2 0x100 DUP1 DUP4 SLOAD DIV MUL DUP4 MSTORE SWAP2 PUSH1 0x20 ADD SWAP2 PUSH2 0xDC6 JUMP JUMPDEST DUP3 ADD SWAP2 SWAP1 PUSH1 0x0 MSTORE PUSH1 0x20 PUSH1 0x0 KECCAK256 SWAP1 JUMPDEST DUP2 SLOAD DUP2 MSTORE SWAP1 PUSH1 0x1 ADD SWAP1 PUSH1 0x20 ADD DUP1 DUP4 GT PUSH2 0xDA9 JUMPI DUP3 SWAP1 SUB PUSH1 0x1F AND DUP3 ADD SWAP2 JUMPDEST POP POP POP POP POP DUP2 MSTORE PUSH1 0x20 ADD PUSH1 0x1 DUP5 DUP2 SLOAD DUP2 LT PUSH2 0xDE4 JUMPI PUSH2 0xDE3 PUSH2 0x2AB1 JUMP JUMPDEST JUMPDEST SWAP1 PUSH1 0x0 MSTORE PUSH1 0x20 PUSH1 0x0 KECCAK256 SWAP1 PUSH1 0x9 MUL ADD PUSH1 0x1 ADD DUP1 SLOAD PUSH2 0xE00 SWAP1 PUSH2 0x2B0F JUMP JUMPDEST DUP1 PUSH1 0x1F ADD PUSH1 0x20 DUP1 SWAP2 DIV MUL PUSH1 0x20 ADD PUSH1 0x40 MLOAD SWAP1 DUP2 ADD PUSH1 0x40 MSTORE DUP1 SWAP3 SWAP2 SWAP1 DUP2 DUP2 MSTORE PUSH1 0x20 ADD DUP3 DUP1 SLOAD PUSH2 0xE2C SWAP1 PUSH2 0x2B0F JUMP JUMPDEST DUP1 ISZERO PUSH2 0xE79 JUMPI DUP1 PUSH1 0x1F LT PUSH2 0xE4E JUMPI PUSH2 0x100 DUP1 DUP4 SLOAD DIV MUL DUP4 MSTORE SWAP2 PUSH1 0x20 ADD SWAP2 PUSH2 0xE79 JUMP JUMPDEST DUP3 ADD SWAP2 SWAP1 PUSH1 0x0 MSTORE PUSH1 0x20 PUSH1 0x0 KECCAK256 SWAP1 JUMPDEST DUP2 SLOAD DUP2 MSTORE SWAP1 PUSH1 0x1 ADD SWAP1 PUSH1 0x20 ADD DUP1 DUP4 GT PUSH2 0xE5C JUMPI DUP3 SWAP1 SUB PUSH1 0x1F AND DUP3 ADD SWAP2 JUMPDEST POP POP POP POP POP DUP2 MSTORE PUSH1 0x20 ADD PUSH1 0x1 DUP5 DUP2 SLOAD DUP2 LT PUSH2 0xE97 JUMPI PUSH2 0xE96 PUSH2 0x2AB1 JUMP JUMPDEST JUMPDEST SWAP1 PUSH1 0x0 MSTORE PUSH1 0x20 PUSH1 0x0 KECCAK256 SWAP1 PUSH1 0x9 MUL ADD PUSH1 0x2 ADD SLOAD DUP2 MSTORE PUSH1 0x20 ADD PUSH1 0x1 DUP5 DUP2 SLOAD DUP2 LT PUSH2 0xEC2 JUMPI PUSH2 0xEC1 PUSH2 0x2AB1 JUMP JUMPDEST JUMPDEST SWAP1 PUSH1 0x0 MSTORE PUSH1 0x20 PUSH1 0x0 KECCAK256 SWAP1 PUSH1 0x9 MUL ADD PUSH1 0x3 ADD SLOAD DUP2 MSTORE PUSH1 0x20 ADD PUSH1 0x1 DUP5 DUP2 SLOAD DUP2 LT PUSH2 0xEED JUMPI PUSH2 0xEEC PUSH2 0x2AB1 JUMP JUMPDEST JUMPDEST SWAP1 PUSH1 0x0 MSTORE PUSH1 0x20 PUSH1 0x0 KECCAK256 SWAP1 PUSH1 0x9 MUL ADD PUSH1 0x4 ADD SLOAD DUP2 MSTORE PUSH1 0x20 ADD PUSH1 0x1 DUP5 DUP2 SLOAD DUP2 LT PUSH2 0xF18 JUMPI PUSH2 0xF17 PUSH2 0x2AB1 JUMP JUMPDEST JUMPDEST SWAP1 PUSH1 0x0 MSTORE PUSH1 0x20 PUSH1 0x0 KECCAK256 SWAP1 PUSH1 0x9 MUL ADD PUSH1 0x5 ADD DUP1 SLOAD DUP1 PUSH1 0x20 MUL PUSH1 0x20 ADD PUSH1 0x40 MLOAD SWAP1 DUP2 ADD PUSH1 0x40 MSTORE DUP1 SWAP3 SWAP2 SWAP1 DUP2 DUP2 MSTORE PUSH1 0x20 ADD DUP3 DUP1 SLOAD DUP1 ISZERO PUSH2 0xF73 JUMPI PUSH1 0x20 MUL DUP3 ADD SWAP2 SWAP1 PUSH1 0x0 MSTORE PUSH1 0x20 PUSH1 0x0 KECCAK256 SWAP1 JUMPDEST DUP2 SLOAD DUP2 MSTORE PUSH1 0x20 ADD SWAP1 PUSH1 0x1 ADD SWAP1 DUP1 DUP4 GT PUSH2 0xF5F JUMPI JUMPDEST POP POP POP POP POP DUP2 MSTORE PUSH1 0x20 ADD PUSH1 0x1 DUP5 DUP2 SLOAD DUP2 LT PUSH2 0xF91 JUMPI PUSH2 0xF90 PUSH2 0x2AB1 JUMP JUMPDEST JUMPDEST SWAP1 PUSH1 0x0 MSTORE PUSH1 0x20 PUSH1 0x0 KECCAK256 SWAP1 PUSH1 0x9 MUL ADD PUSH1 0x6 ADD DUP1 SLOAD DUP1 PUSH1 0x20 MUL PUSH1 0x20 ADD PUSH1 0x40 MLOAD SWAP1 DUP2 ADD PUSH1 0x40 MSTORE DUP1 SWAP3 SWAP2 SWAP1 DUP2 DUP2 MSTORE PUSH1 0x20 ADD DUP3 DUP1 SLOAD DUP1 ISZERO PUSH2 0xFEC JUMPI PUSH1 0x20 MUL DUP3 ADD SWAP2 SWAP1 PUSH1 0x0 MSTORE PUSH1 0x20 PUSH1 0x0 KECCAK256 SWAP1 JUMPDEST DUP2 SLOAD DUP2 MSTORE PUSH1 0x20 ADD SWAP1 PUSH1 0x1 ADD SWAP1 DUP1 DUP4 GT PUSH2 0xFD8 JUMPI JUMPDEST POP POP POP POP POP DUP2 MSTORE PUSH1 0x20 ADD PUSH1 0x1 DUP5 DUP2 SLOAD DUP2 LT PUSH2 0x100A JUMPI PUSH2 0x1009 PUSH2 0x2AB1 JUMP JUMPDEST JUMPDEST SWAP1 PUSH1 0x0 MSTORE PUSH1 0x20 PUSH1 0x0 KECCAK256 SWAP1 PUSH1 0x9 MUL ADD PUSH1 0x7 ADD DUP1 SLOAD DUP1 PUSH1 0x20 MUL PUSH1 0x20 ADD PUSH1 0x40 MLOAD SWAP1 DUP2 ADD PUSH1 0x40 MSTORE DUP1 SWAP3 SWAP2 SWAP1 DUP2 DUP2 MSTORE PUSH1 0x20 ADD DUP3 DUP1 SLOAD DUP1 ISZERO PUSH2 0x1065 JUMPI PUSH1 0x20 MUL DUP3 ADD SWAP2 SWAP1 PUSH1 0x0 MSTORE PUSH1 0x20 PUSH1 0x0 KECCAK256 SWAP1 JUMPDEST DUP2 SLOAD DUP2 MSTORE PUSH1 0x20 ADD SWAP1 PUSH1 0x1 ADD SWAP1 DUP1 DUP4 GT PUSH2 0x1051 JUMPI JUMPDEST POP POP POP POP POP DUP2 MSTORE PUSH1 0x20 ADD PUSH1 0x1 DUP5 DUP2 SLOAD DUP2 LT PUSH2 0x1083 JUMPI PUSH2 0x1082 PUSH2 0x2AB1 JUMP JUMPDEST JUMPDEST SWAP1 PUSH1 0x0 MSTORE PUSH1 0x20 PUSH1 0x0 KECCAK256 SWAP1 PUSH1 0x9 MUL ADD PUSH1 0x8 ADD PUSH1 0x0 SWAP1 SLOAD SWAP1 PUSH2 0x100 EXP SWAP1 DIV PUSH1 0xFF AND ISZERO ISZERO DUP2 MSTORE POP SWAP1 POP DUP1 SWAP3 POP POP POP PUSH2 0x10C8 JUMP JUMPDEST DUP1 DUP1 PUSH2 0x10BE SWAP1 PUSH2 0x2CD6 JUMP JUMPDEST SWAP2 POP POP PUSH2 0xCD6 JUMP JUMPDEST POP JUMPDEST SWAP2 SWAP1 POP JUMP JUMPDEST PUSH1 0x60 PUSH1 0x0 JUMPDEST PUSH1 0x1 DUP1 SLOAD SWAP1 POP DUP2 LT ISZERO PUSH2 0x119A JUMPI DUP3 PUSH1 0x1 DUP3 DUP2 SLOAD DUP2 LT PUSH2 0x10F4 JUMPI PUSH2 0x10F3 PUSH2 0x2AB1 JUMP JUMPDEST JUMPDEST SWAP1 PUSH1 0x0 MSTORE PUSH1 0x20 PUSH1 0x0 KECCAK256 SWAP1 PUSH1 0x9 MUL ADD PUSH1 0x4 ADD SLOAD SUB PUSH2 0x1187 JUMPI PUSH1 0x1 DUP2 DUP2 SLOAD DUP2 LT PUSH2 0x111F JUMPI PUSH2 0x111E PUSH2 0x2AB1 JUMP JUMPDEST JUMPDEST SWAP1 PUSH1 0x0 MSTORE PUSH1 0x20 PUSH1 0x0 KECCAK256 SWAP1 PUSH1 0x9 MUL ADD PUSH1 0x5 ADD DUP1 SLOAD DUP1 PUSH1 0x20 MUL PUSH1 0x20 ADD PUSH1 0x40 MLOAD SWAP1 DUP2 ADD PUSH1 0x40 MSTORE DUP1 SWAP3 SWAP2 SWAP1 DUP2 DUP2 MSTORE PUSH1 0x20 ADD DUP3 DUP1 SLOAD DUP1 ISZERO PUSH2 0x117A JUMPI PUSH1 0x20 MUL DUP3 ADD SWAP2 SWAP1 PUSH1 0x0 MSTORE PUSH1 0x20 PUSH1 0x0 KECCAK256 SWAP1 JUMPDEST DUP2 SLOAD DUP2 MSTORE PUSH1 0x20 ADD SWAP1 PUSH1 0x1 ADD SWAP1 DUP1 DUP4 GT PUSH2 0x1166 JUMPI JUMPDEST POP POP POP POP POP SWAP2 POP POP PUSH2 0x119C JUMP JUMPDEST DUP1 DUP1 PUSH2 0x1192 SWAP1 PUSH2 0x2CD6 JUMP JUMPDEST SWAP2 POP POP PUSH2 0x10D2 JUMP JUMPDEST POP JUMPDEST SWAP2 SWAP1 POP JUMP JUMPDEST PUSH1 0x5 SLOAD DUP2 JUMP JUMPDEST PUSH1 0x0 SELFBALANCE SWAP1 POP SWAP1 JUMP JUMPDEST PUSH1 0x0 DUP5 DUP5 DUP5 DUP5 PUSH1 0x40 MLOAD PUSH1 0x20 ADD PUSH2 0x11C8 SWAP5 SWAP4 SWAP3 SWAP2 SWAP1 PUSH2 0x3146 JUMP JUMPDEST PUSH1 0x40 MLOAD PUSH1 0x20 DUP2 DUP4 SUB SUB DUP2 MSTORE SWAP1 PUSH1 0x40 MSTORE DUP1 MLOAD SWAP1 PUSH1 0x20 ADD KECCAK256 SWAP1 POP PUSH1 0x0 PUSH1 0x1 DUP1 SLOAD SWAP1 POP SWAP1 POP PUSH1 0x0 JUMPDEST DUP2 DUP2 LT ISZERO PUSH2 0x130F JUMPI DUP3 PUSH1 0x1 DUP3 DUP2 SLOAD DUP2 LT PUSH2 0x120A JUMPI PUSH2 0x1209 PUSH2 0x2AB1 JUMP JUMPDEST JUMPDEST SWAP1 PUSH1 0x0 MSTORE PUSH1 0x20 PUSH1 0x0 KECCAK256 SWAP1 PUSH1 0x9 MUL ADD PUSH1 0x0 ADD PUSH1 0x1 DUP4 DUP2 SLOAD DUP2 LT PUSH2 0x122F JUMPI PUSH2 0x122E PUSH2 0x2AB1 JUMP JUMPDEST JUMPDEST SWAP1 PUSH1 0x0 MSTORE PUSH1 0x20 PUSH1 0x0 KECCAK256 SWAP1 PUSH1 0x9 MUL ADD PUSH1 0x1 ADD PUSH1 0x1 DUP5 DUP2 SLOAD DUP2 LT PUSH2 0x1254 JUMPI PUSH2 0x1253 PUSH2 0x2AB1 JUMP JUMPDEST JUMPDEST SWAP1 PUSH1 0x0 MSTORE PUSH1 0x20 PUSH1 0x0 KECCAK256 SWAP1 PUSH1 0x9 MUL ADD PUSH1 0x2 ADD SLOAD PUSH1 0x1 DUP6 DUP2 SLOAD DUP2 LT PUSH2 0x127A JUMPI PUSH2 0x1279 PUSH2 0x2AB1 JUMP JUMPDEST JUMPDEST SWAP1 PUSH1 0x0 MSTORE PUSH1 0x20 PUSH1 0x0 KECCAK256 SWAP1 PUSH1 0x9 MUL ADD PUSH1 0x3 ADD SLOAD PUSH1 0x40 MLOAD PUSH1 0x20 ADD PUSH2 0x129F SWAP5 SWAP4 SWAP3 SWAP2 SWAP1 PUSH2 0x318C JUMP JUMPDEST PUSH1 0x40 MLOAD PUSH1 0x20 DUP2 DUP4 SUB SUB DUP2 MSTORE SWAP1 PUSH1 0x40 MSTORE DUP1 MLOAD SWAP1 PUSH1 0x20 ADD KECCAK256 SUB PUSH2 0x12FC JUMPI PUSH1 0x0 PUSH2 0x12FB JUMPI PUSH1 0x40 MLOAD PUSH32 0x8C379A000000000000000000000000000000000000000000000000000000000 DUP2 MSTORE PUSH1 0x4 ADD PUSH2 0x12F2 SWAP1 PUSH2 0x326A JUMP JUMPDEST PUSH1 0x40 MLOAD DUP1 SWAP2 SUB SWAP1 REVERT JUMPDEST JUMPDEST DUP1 DUP1 PUSH2 0x1307 SWAP1 PUSH2 0x2CD6 JUMP JUMPDEST SWAP2 POP POP PUSH2 0x11ED JUMP JUMPDEST POP PUSH1 0x4 PUSH1 0x0 DUP2 SLOAD DUP1 SWAP3 SWAP2 SWAP1 PUSH2 0x1323 SWAP1 PUSH2 0x2CD6 JUMP JUMPDEST SWAP2 SWAP1 POP SSTORE POP PUSH1 0x1 PUSH1 0x40 MLOAD DUP1 PUSH2 0x120 ADD PUSH1 0x40 MSTORE DUP1 DUP9 DUP2 MSTORE PUSH1 0x20 ADD DUP8 DUP2 MSTORE PUSH1 0x20 ADD DUP7 DUP2 MSTORE PUSH1 0x20 ADD DUP6 DUP2 MSTORE PUSH1 0x20 ADD PUSH1 0x4 SLOAD DUP2 MSTORE PUSH1 0x20 ADD PUSH1 0x0 PUSH8 0xFFFFFFFFFFFFFFFF DUP2 GT ISZERO PUSH2 0x1371 JUMPI PUSH2 0x1370 PUSH2 0x1FF6 JUMP JUMPDEST JUMPDEST PUSH1 0x40 MLOAD SWAP1 DUP1 DUP3 MSTORE DUP1 PUSH1 0x20 MUL PUSH1 0x20 ADD DUP3 ADD PUSH1 0x40 MSTORE DUP1 ISZERO PUSH2 0x139F JUMPI DUP2 PUSH1 0x20 ADD PUSH1 0x20 DUP3 MUL DUP1 CALLDATASIZE DUP4 CALLDATACOPY DUP1 DUP3 ADD SWAP2 POP POP SWAP1 POP JUMPDEST POP DUP2 MSTORE PUSH1 0x20 ADD PUSH1 0x0 PUSH8 0xFFFFFFFFFFFFFFFF DUP2 GT ISZERO PUSH2 0x13C0 JUMPI PUSH2 0x13BF PUSH2 0x1FF6 JUMP JUMPDEST JUMPDEST PUSH1 0x40 MLOAD SWAP1 DUP1 DUP3 MSTORE DUP1 PUSH1 0x20 MUL PUSH1 0x20 ADD DUP3 ADD PUSH1 0x40 MSTORE DUP1 ISZERO PUSH2 0x13EE JUMPI DUP2 PUSH1 0x20 ADD PUSH1 0x20 DUP3 MUL DUP1 CALLDATASIZE DUP4 CALLDATACOPY DUP1 DUP3 ADD SWAP2 POP POP SWAP1 POP JUMPDEST POP DUP2 MSTORE PUSH1 0x20 ADD PUSH1 0x0 PUSH8 0xFFFFFFFFFFFFFFFF DUP2 GT ISZERO PUSH2 0x140F JUMPI PUSH2 0x140E PUSH2 0x1FF6 JUMP JUMPDEST JUMPDEST PUSH1 0x40 MLOAD SWAP1 DUP1 DUP3 MSTORE DUP1 PUSH1 0x20 MUL PUSH1 0x20 ADD DUP3 ADD PUSH1 0x40 MSTORE DUP1 ISZERO PUSH2 0x143D JUMPI DUP2 PUSH1 0x20 ADD PUSH1 0x20 DUP3 MUL DUP1 CALLDATASIZE DUP4 CALLDATACOPY DUP1 DUP3 ADD SWAP2 POP POP SWAP1 POP JUMPDEST POP DUP2 MSTORE PUSH1 0x20 ADD PUSH1 0x0 ISZERO ISZERO DUP2 MSTORE POP SWAP1 DUP1 PUSH1 0x1 DUP2 SLOAD ADD DUP1 DUP3 SSTORE DUP1 SWAP2 POP POP PUSH1 0x1 SWAP1 SUB SWAP1 PUSH1 0x0 MSTORE PUSH1 0x20 PUSH1 0x0 KECCAK256 SWAP1 PUSH1 0x9 MUL ADD PUSH1 0x0 SWAP1 SWAP2 SWAP1 SWAP2 SWAP1 SWAP2 POP PUSH1 0x0 DUP3 ADD MLOAD DUP2 PUSH1 0x0 ADD SWAP1 DUP2 PUSH2 0x1488 SWAP2 SWAP1 PUSH2 0x2EB5 JUMP JUMPDEST POP PUSH1 0x20 DUP3 ADD MLOAD DUP2 PUSH1 0x1 ADD SWAP1 DUP2 PUSH2 0x149E SWAP2 SWAP1 PUSH2 0x2EB5 JUMP JUMPDEST POP PUSH1 0x40 DUP3 ADD MLOAD DUP2 PUSH1 0x2 ADD SSTORE PUSH1 0x60 DUP3 ADD MLOAD DUP2 PUSH1 0x3 ADD SSTORE PUSH1 0x80 DUP3 ADD MLOAD DUP2 PUSH1 0x4 ADD SSTORE PUSH1 0xA0 DUP3 ADD MLOAD DUP2 PUSH1 0x5 ADD SWAP1 DUP1 MLOAD SWAP1 PUSH1 0x20 ADD SWAP1 PUSH2 0x14D9 SWAP3 SWAP2 SWAP1 PUSH2 0x1F5D JUMP JUMPDEST POP PUSH1 0xC0 DUP3 ADD MLOAD DUP2 PUSH1 0x6 ADD SWAP1 DUP1 MLOAD SWAP1 PUSH1 0x20 ADD SWAP1 PUSH2 0x14F6 SWAP3 SWAP2 SWAP1 PUSH2 0x1F5D JUMP JUMPDEST POP PUSH1 0xE0 DUP3 ADD MLOAD DUP2 PUSH1 0x7 ADD SWAP1 DUP1 MLOAD SWAP1 PUSH1 0x20 ADD SWAP1 PUSH2 0x1513 SWAP3 SWAP2 SWAP1 PUSH2 0x1F5D JUMP JUMPDEST POP PUSH2 0x100 DUP3 ADD MLOAD DUP2 PUSH1 0x8 ADD PUSH1 0x0 PUSH2 0x100 EXP DUP2 SLOAD DUP2 PUSH1 0xFF MUL NOT AND SWAP1 DUP4 ISZERO ISZERO MUL OR SWAP1 SSTORE POP POP POP PUSH32 0x166B96A382DC3ABC86BA052CA9C020CFD7022D2D3059E868918A3D20779E41CC PUSH1 0x40 MLOAD PUSH2 0x1564 SWAP1 PUSH2 0x32D6 JUMP JUMPDEST PUSH1 0x40 MLOAD DUP1 SWAP2 SUB SWAP1 LOG1 POP POP POP POP POP POP JUMP JUMPDEST PUSH1 0x4 SLOAD DUP2 JUMP JUMPDEST PUSH1 0x60 PUSH1 0x2 DUP1 SLOAD DUP1 PUSH1 0x20 MUL PUSH1 0x20 ADD PUSH1 0x40 MLOAD SWAP1 DUP2 ADD PUSH1 0x40 MSTORE DUP1 SWAP3 SWAP2 SWAP1 DUP2 DUP2 MSTORE PUSH1 0x20 ADD PUSH1 0x0 SWAP1 JUMPDEST DUP3 DUP3 LT ISZERO PUSH2 0x1676 JUMPI DUP4 DUP3 SWAP1 PUSH1 0x0 MSTORE PUSH1 0x20 PUSH1 0x0 KECCAK256 SWAP1 PUSH1 0x3 MUL ADD PUSH1 0x40 MLOAD DUP1 PUSH1 0x60 ADD PUSH1 0x40 MSTORE SWAP1 DUP2 PUSH1 0x0 DUP3 ADD SLOAD DUP2 MSTORE PUSH1 0x20 ADD PUSH1 0x1 DUP3 ADD DUP1 SLOAD PUSH2 0x15DB SWAP1 PUSH2 0x2B0F JUMP JUMPDEST DUP1 PUSH1 0x1F ADD PUSH1 0x20 DUP1 SWAP2 DIV MUL PUSH1 0x20 ADD PUSH1 0x40 MLOAD SWAP1 DUP2 ADD PUSH1 0x40 MSTORE DUP1 SWAP3 SWAP2 SWAP1 DUP2 DUP2 MSTORE PUSH1 0x20 ADD DUP3 DUP1 SLOAD PUSH2 0x1607 SWAP1 PUSH2 0x2B0F JUMP JUMPDEST DUP1 ISZERO PUSH2 0x1654 JUMPI DUP1 PUSH1 0x1F LT PUSH2 0x1629 JUMPI PUSH2 0x100 DUP1 DUP4 SLOAD DIV MUL DUP4 MSTORE SWAP2 PUSH1 0x20 ADD SWAP2 PUSH2 0x1654 JUMP JUMPDEST DUP3 ADD SWAP2 SWAP1 PUSH1 0x0 MSTORE PUSH1 0x20 PUSH1 0x0 KECCAK256 SWAP1 JUMPDEST DUP2 SLOAD DUP2 MSTORE SWAP1 PUSH1 0x1 ADD SWAP1 PUSH1 0x20 ADD DUP1 DUP4 GT PUSH2 0x1637 JUMPI DUP3 SWAP1 SUB PUSH1 0x1F AND DUP3 ADD SWAP2 JUMPDEST POP POP POP POP POP DUP2 MSTORE PUSH1 0x20 ADD PUSH1 0x2 DUP3 ADD SLOAD DUP2 MSTORE POP POP DUP2 MSTORE PUSH1 0x20 ADD SWAP1 PUSH1 0x1 ADD SWAP1 PUSH2 0x159E JUMP JUMPDEST POP POP POP POP SWAP1 POP SWAP1 JUMP JUMPDEST PUSH1 0x2 DUP2 DUP2 SLOAD DUP2 LT PUSH2 0x168F JUMPI PUSH1 0x0 DUP1 REVERT JUMPDEST SWAP1 PUSH1 0x0 MSTORE PUSH1 0x20 PUSH1 0x0 KECCAK256 SWAP1 PUSH1 0x3 MUL ADD PUSH1 0x0 SWAP2 POP SWAP1 POP DUP1 PUSH1 0x0 ADD SLOAD SWAP1 DUP1 PUSH1 0x1 ADD DUP1 SLOAD PUSH2 0x16B8 SWAP1 PUSH2 0x2B0F JUMP JUMPDEST DUP1 PUSH1 0x1F ADD PUSH1 0x20 DUP1 SWAP2 DIV MUL PUSH1 0x20 ADD PUSH1 0x40 MLOAD SWAP1 DUP2 ADD PUSH1 0x40 MSTORE DUP1 SWAP3 SWAP2 SWAP1 DUP2 DUP2 MSTORE PUSH1 0x20 ADD DUP3 DUP1 SLOAD PUSH2 0x16E4 SWAP1 PUSH2 0x2B0F JUMP JUMPDEST DUP1 ISZERO PUSH2 0x1731 JUMPI DUP1 PUSH1 0x1F LT PUSH2 0x1706 JUMPI PUSH2 0x100 DUP1 DUP4 SLOAD DIV MUL DUP4 MSTORE SWAP2 PUSH1 0x20 ADD SWAP2 PUSH2 0x1731 JUMP JUMPDEST DUP3 ADD SWAP2 SWAP1 PUSH1 0x0 MSTORE PUSH1 0x20 PUSH1 0x0 KECCAK256 SWAP1 JUMPDEST DUP2 SLOAD DUP2 MSTORE SWAP1 PUSH1 0x1 ADD SWAP1 PUSH1 0x20 ADD DUP1 DUP4 GT PUSH2 0x1714 JUMPI DUP3 SWAP1 SUB PUSH1 0x1F AND DUP3 ADD SWAP2 JUMPDEST POP POP POP POP POP SWAP1 DUP1 PUSH1 0x2 ADD SLOAD SWAP1 POP DUP4 JUMP JUMPDEST PUSH1 0x3 PUSH1 0x20 MSTORE DUP1 PUSH1 0x0 MSTORE PUSH1 0x40 PUSH1 0x0 KECCAK256 PUSH1 0x0 SWAP2 POP SWAP1 POP SLOAD DUP2 JUMP JUMPDEST PUSH1 0x0 DUP1 SLOAD SWAP1 PUSH2 0x100 EXP SWAP1 DIV PUSH20 0xFFFFFFFFFFFFFFFFFFFFFFFFFFFFFFFFFFFFFFFF AND PUSH20 0xFFFFFFFFFFFFFFFFFFFFFFFFFFFFFFFFFFFFFFFF AND CALLER PUSH20 0xFFFFFFFFFFFFFFFFFFFFFFFFFFFFFFFFFFFFFFFF AND EQ PUSH2 0x17B1 JUMPI PUSH1 0x0 DUP1 REVERT JUMPDEST PUSH1 0x0 JUMPDEST PUSH1 0x1 DUP1 SLOAD SWAP1 POP DUP2 LT ISZERO PUSH2 0x187B JUMPI DUP4 PUSH1 0x1 DUP3 DUP2 SLOAD DUP2 LT PUSH2 0x17D6 JUMPI PUSH2 0x17D5 PUSH2 0x2AB1 JUMP JUMPDEST JUMPDEST SWAP1 PUSH1 0x0 MSTORE PUSH1 0x20 PUSH1 0x0 KECCAK256 SWAP1 PUSH1 0x9 MUL ADD PUSH1 0x4 ADD SLOAD SUB PUSH2 0x1868 JUMPI PUSH1 0x1 DUP2 DUP2 SLOAD DUP2 LT PUSH2 0x1801 JUMPI PUSH2 0x1800 PUSH2 0x2AB1 JUMP JUMPDEST JUMPDEST SWAP1 PUSH1 0x0 MSTORE PUSH1 0x20 PUSH1 0x0 KECCAK256 SWAP1 PUSH1 0x9 MUL ADD PUSH1 0x5 ADD DUP1 SLOAD SWAP1 POP DUP3 LT PUSH2 0x1821 JUMPI PUSH1 0x0 DUP1 REVERT JUMPDEST DUP3 PUSH1 0x1 DUP3 DUP2 SLOAD DUP2 LT PUSH2 0x1836 JUMPI PUSH2 0x1835 PUSH2 0x2AB1 JUMP JUMPDEST JUMPDEST SWAP1 PUSH1 0x0 MSTORE PUSH1 0x20 PUSH1 0x0 KECCAK256 SWAP1 PUSH1 0x9 MUL ADD PUSH1 0x7 ADD DUP4 DUP2 SLOAD DUP2 LT PUSH2 0x1859 JUMPI PUSH2 0x1858 PUSH2 0x2AB1 JUMP JUMPDEST JUMPDEST SWAP1 PUSH1 0x0 MSTORE PUSH1 0x20 PUSH1 0x0 KECCAK256 ADD DUP2 SWAP1 SSTORE POP JUMPDEST DUP1 DUP1 PUSH2 0x1873 SWAP1 PUSH2 0x2CD6 JUMP JUMPDEST SWAP2 POP POP PUSH2 0x17B4 JUMP JUMPDEST POP POP POP POP JUMP JUMPDEST PUSH1 0x0 DUP1 DUP1 PUSH1 0x0 SWAP1 POP JUMPDEST PUSH1 0x1 DUP1 SLOAD SWAP1 POP DUP2 LT ISZERO PUSH2 0x18DE JUMPI DUP4 PUSH1 0x1 DUP3 DUP2 SLOAD DUP2 LT PUSH2 0x18AC JUMPI PUSH2 0x18AB PUSH2 0x2AB1 JUMP JUMPDEST JUMPDEST SWAP1 PUSH1 0x0 MSTORE PUSH1 0x20 PUSH1 0x0 KECCAK256 SWAP1 PUSH1 0x9 MUL ADD PUSH1 0x4 ADD SLOAD SUB PUSH2 0x18CB JUMPI DUP1 SWAP2 POP PUSH2 0x18DE JUMP JUMPDEST DUP1 DUP1 PUSH2 0x18D6 SWAP1 PUSH2 0x2CD6 JUMP JUMPDEST SWAP2 POP POP PUSH2 0x188A JUMP JUMPDEST POP PUSH1 0x0 JUMPDEST PUSH1 0x1 DUP3 DUP2 SLOAD DUP2 LT PUSH2 0x18F6 JUMPI PUSH2 0x18F5 PUSH2 0x2AB1 JUMP JUMPDEST JUMPDEST SWAP1 PUSH1 0x0 MSTORE PUSH1 0x20 PUSH1 0x0 KECCAK256 SWAP1 PUSH1 0x9 MUL ADD PUSH1 0x5 ADD DUP1 SLOAD SWAP1 POP DUP2 LT ISZERO PUSH2 0x19F4 JUMPI PUSH1 0x0 PUSH1 0x1 DUP4 DUP2 SLOAD DUP2 LT PUSH2 0x1928 JUMPI PUSH2 0x1927 PUSH2 0x2AB1 JUMP JUMPDEST JUMPDEST SWAP1 PUSH1 0x0 MSTORE PUSH1 0x20 PUSH1 0x0 KECCAK256 SWAP1 PUSH1 0x9 MUL ADD PUSH1 0x5 ADD DUP3 DUP2 SLOAD DUP2 LT PUSH2 0x194B JUMPI PUSH2 0x194A PUSH2 0x2AB1 JUMP JUMPDEST JUMPDEST SWAP1 PUSH1 0x0 MSTORE PUSH1 0x20 PUSH1 0x0 KECCAK256 ADD SLOAD SWAP1 POP PUSH1 0x0 JUMPDEST PUSH1 0x2 DUP1 SLOAD SWAP1 POP DUP2 LT ISZERO PUSH2 0x19DF JUMPI DUP2 PUSH1 0x2 DUP3 DUP2 SLOAD DUP2 LT PUSH2 0x197D JUMPI PUSH2 0x197C PUSH2 0x2AB1 JUMP JUMPDEST JUMPDEST SWAP1 PUSH1 0x0 MSTORE PUSH1 0x20 PUSH1 0x0 KECCAK256 SWAP1 PUSH1 0x3 MUL ADD PUSH1 0x0 ADD SLOAD SUB PUSH2 0x19CC JUMPI PUSH1 0x2 DUP2 DUP2 SLOAD DUP2 LT PUSH2 0x19A8 JUMPI PUSH2 0x19A7 PUSH2 0x2AB1 JUMP JUMPDEST JUMPDEST SWAP1 PUSH1 0x0 MSTORE PUSH1 0x20 PUSH1 0x0 KECCAK256 SWAP1 PUSH1 0x3 MUL ADD PUSH1 0x2 ADD SLOAD DUP6 PUSH2 0x19C5 SWAP2 SWAP1 PUSH2 0x30F1 JUMP JUMPDEST SWAP5 POP PUSH2 0x19DF JUMP JUMPDEST DUP1 DUP1 PUSH2 0x19D7 SWAP1 PUSH2 0x2CD6 JUMP JUMPDEST SWAP2 POP POP PUSH2 0x195B JUMP JUMPDEST POP POP DUP1 DUP1 PUSH2 0x19EC SWAP1 PUSH2 0x2CD6 JUMP JUMPDEST SWAP2 POP POP PUSH2 0x18E2 JUMP JUMPDEST POP DUP2 CALLVALUE EQ PUSH2 0x1A37 JUMPI PUSH1 0x40 MLOAD PUSH32 0x8C379A000000000000000000000000000000000000000000000000000000000 DUP2 MSTORE PUSH1 0x4 ADD PUSH2 0x1A2E SWAP1 PUSH2 0x3342 JUMP JUMPDEST PUSH1 0x40 MLOAD DUP1 SWAP2 SUB SWAP1 REVERT JUMPDEST DUP2 CALLVALUE LT PUSH2 0x1AB5 JUMPI PUSH1 0x1 DUP1 DUP3 DUP2 SLOAD DUP2 LT PUSH2 0x1A53 JUMPI PUSH2 0x1A52 PUSH2 0x2AB1 JUMP JUMPDEST JUMPDEST SWAP1 PUSH1 0x0 MSTORE PUSH1 0x20 PUSH1 0x0 KECCAK256 SWAP1 PUSH1 0x9 MUL ADD PUSH1 0x8 ADD PUSH1 0x0 PUSH2 0x100 EXP DUP2 SLOAD DUP2 PUSH1 0xFF MUL NOT AND SWAP1 DUP4 ISZERO ISZERO MUL OR SWAP1 SSTORE POP PUSH32 0x166B96A382DC3ABC86BA052CA9C020CFD7022D2D3059E868918A3D20779E41CC PUSH1 0x40 MLOAD PUSH2 0x1AA8 SWAP1 PUSH2 0x33AE JUMP JUMPDEST PUSH1 0x40 MLOAD DUP1 SWAP2 SUB SWAP1 LOG1 PUSH2 0x1AF4 JUMP JUMPDEST PUSH1 0x0 PUSH1 0x1 DUP3 DUP2 SLOAD DUP2 LT PUSH2 0x1ACB JUMPI PUSH2 0x1ACA PUSH2 0x2AB1 JUMP JUMPDEST JUMPDEST SWAP1 PUSH1 0x0 MSTORE PUSH1 0x20 PUSH1 0x0 KECCAK256 SWAP1 PUSH1 0x9 MUL ADD PUSH1 0x8 ADD PUSH1 0x0 PUSH2 0x100 EXP DUP2 SLOAD DUP2 PUSH1 0xFF MUL NOT AND SWAP1 DUP4 ISZERO ISZERO MUL OR SWAP1 SSTORE POP JUMPDEST POP POP POP JUMP JUMPDEST PUSH1 0x60 DUP1 PUSH1 0x0 JUMPDEST PUSH1 0x1 DUP1 SLOAD SWAP1 POP DUP2 LT ISZERO PUSH2 0x1C43 JUMPI DUP4 PUSH1 0x1 DUP3 DUP2 SLOAD DUP2 LT PUSH2 0x1B21 JUMPI PUSH2 0x1B20 PUSH2 0x2AB1 JUMP JUMPDEST JUMPDEST SWAP1 PUSH1 0x0 MSTORE PUSH1 0x20 PUSH1 0x0 KECCAK256 SWAP1 PUSH1 0x9 MUL ADD PUSH1 0x4 ADD SLOAD SUB PUSH2 0x1C30 JUMPI PUSH1 0x1 DUP2 DUP2 SLOAD DUP2 LT PUSH2 0x1B4C JUMPI PUSH2 0x1B4B PUSH2 0x2AB1 JUMP JUMPDEST JUMPDEST SWAP1 PUSH1 0x0 MSTORE PUSH1 0x20 PUSH1 0x0 KECCAK256 SWAP1 PUSH1 0x9 MUL ADD PUSH1 0x5 ADD PUSH1 0x1 DUP3 DUP2 SLOAD DUP2 LT PUSH2 0x1B71 JUMPI PUSH2 0x1B70 PUSH2 0x2AB1 JUMP JUMPDEST JUMPDEST SWAP1 PUSH1 0x0 MSTORE PUSH1 0x20 PUSH1 0x0 KECCAK256 SWAP1 PUSH1 0x9 MUL ADD PUSH1 0x6 ADD DUP2 DUP1 SLOAD DUP1 PUSH1 0x20 MUL PUSH1 0x20 ADD PUSH1 0x40 MLOAD SWAP1 DUP2 ADD PUSH1 0x40 MSTORE DUP1 SWAP3 SWAP2 SWAP1 DUP2 DUP2 MSTORE PUSH1 0x20 ADD DUP3 DUP1 SLOAD DUP1 ISZERO PUSH2 0x1BCD JUMPI PUSH1 0x20 MUL DUP3 ADD SWAP2 SWAP1 PUSH1 0x0 MSTORE PUSH1 0x20 PUSH1 0x0 KECCAK256 SWAP1 JUMPDEST DUP2 SLOAD DUP2 MSTORE PUSH1 0x20 ADD SWAP1 PUSH1 0x1 ADD SWAP1 DUP1 DUP4 GT PUSH2 0x1BB9 JUMPI JUMPDEST POP POP POP POP POP SWAP2 POP DUP1 DUP1 SLOAD DUP1 PUSH1 0x20 MUL PUSH1 0x20 ADD PUSH1 0x40 MLOAD SWAP1 DUP2 ADD PUSH1 0x40 MSTORE DUP1 SWAP3 SWAP2 SWAP1 DUP2 DUP2 MSTORE PUSH1 0x20 ADD DUP3 DUP1 SLOAD DUP1 ISZERO PUSH2 0x1C1F JUMPI PUSH1 0x20 MUL DUP3 ADD SWAP2 SWAP1 PUSH1 0x0 MSTORE PUSH1 0x20 PUSH1 0x0 KECCAK256 SWAP1 JUMPDEST DUP2 SLOAD DUP2 MSTORE PUSH1 0x20 ADD SWAP1 PUSH1 0x1 ADD SWAP1 DUP1 DUP4 GT PUSH2 0x1C0B JUMPI JUMPDEST POP POP POP POP POP SWAP1 POP SWAP3 POP SWAP3 POP POP PUSH2 0x1C45 JUMP JUMPDEST DUP1 DUP1 PUSH2 0x1C3B SWAP1 PUSH2 0x2CD6 JUMP JUMPDEST SWAP2 POP POP PUSH2 0x1AFF JUMP JUMPDEST POP JUMPDEST SWAP2 POP SWAP2 JUMP JUMPDEST PUSH1 0x60 PUSH1 0x1 DUP1 SLOAD DUP1 PUSH1 0x20 MUL PUSH1 0x20 ADD PUSH1 0x40 MLOAD SWAP1 DUP2 ADD PUSH1 0x40 MSTORE DUP1 SWAP3 SWAP2 SWAP1 DUP2 DUP2 MSTORE PUSH1 0x20 ADD PUSH1 0x0 SWAP1 JUMPDEST DUP3 DUP3 LT ISZERO PUSH2 0x1F06 JUMPI DUP4 DUP3 SWAP1 PUSH1 0x0 MSTORE PUSH1 0x20 PUSH1 0x0 KECCAK256 SWAP1 PUSH1 0x9 MUL ADD PUSH1 0x40 MLOAD DUP1 PUSH2 0x120 ADD PUSH1 0x40 MSTORE SWAP1 DUP2 PUSH1 0x0 DUP3 ADD DUP1 SLOAD PUSH2 0x1CA2 SWAP1 PUSH2 0x2B0F JUMP JUMPDEST DUP1 PUSH1 0x1F ADD PUSH1 0x20 DUP1 SWAP2 DIV MUL PUSH1 0x20 ADD PUSH1 0x40 MLOAD SWAP1 DUP2 ADD PUSH1 0x40 MSTORE DUP1 SWAP3 SWAP2 SWAP1 DUP2 DUP2 MSTORE PUSH1 0x20 ADD DUP3 DUP1 SLOAD PUSH2 0x1CCE SWAP1 PUSH2 0x2B0F JUMP JUMPDEST DUP1 ISZERO PUSH2 0x1D1B JUMPI DUP1 PUSH1 0x1F LT PUSH2 0x1CF0 JUMPI PUSH2 0x100 DUP1 DUP4 SLOAD DIV MUL DUP4 MSTORE SWAP2 PUSH1 0x20 ADD SWAP2 PUSH2 0x1D1B JUMP JUMPDEST DUP3 ADD SWAP2 SWAP1 PUSH1 0x0 MSTORE PUSH1 0x20 PUSH1 0x0 KECCAK256 SWAP1 JUMPDEST DUP2 SLOAD DUP2 MSTORE SWAP1 PUSH1 0x1 ADD SWAP1 PUSH1 0x20 ADD DUP1 DUP4 GT PUSH2 0x1CFE JUMPI DUP3 SWAP1 SUB PUSH1 0x1F AND DUP3 ADD SWAP2 JUMPDEST POP POP POP POP POP DUP2 MSTORE PUSH1 0x20 ADD PUSH1 0x1 DUP3 ADD DUP1 SLOAD PUSH2 0x1D34 SWAP1 PUSH2 0x2B0F JUMP JUMPDEST DUP1 PUSH1 0x1F ADD PUSH1 0x20 DUP1 SWAP2 DIV MUL PUSH1 0x20 ADD PUSH1 0x40 MLOAD SWAP1 DUP2 ADD PUSH1 0x40 MSTORE DUP1 SWAP3 SWAP2 SWAP1 DUP2 DUP2 MSTORE PUSH1 0x20 ADD DUP3 DUP1 SLOAD PUSH2 0x1D60 SWAP1 PUSH2 0x2B0F JUMP JUMPDEST DUP1 ISZERO PUSH2 0x1DAD JUMPI DUP1 PUSH1 0x1F LT PUSH2 0x1D82 JUMPI PUSH2 0x100 DUP1 DUP4 SLOAD DIV MUL DUP4 MSTORE SWAP2 PUSH1 0x20 ADD SWAP2 PUSH2 0x1DAD JUMP JUMPDEST DUP3 ADD SWAP2 SWAP1 PUSH1 0x0 MSTORE PUSH1 0x20 PUSH1 0x0 KECCAK256 SWAP1 JUMPDEST DUP2 SLOAD DUP2 MSTORE SWAP1 PUSH1 0x1 ADD SWAP1 PUSH1 0x20 ADD DUP1 DUP4 GT PUSH2 0x1D90 JUMPI DUP3 SWAP1 SUB PUSH1 0x1F AND DUP3 ADD SWAP2 JUMPDEST POP POP POP POP POP DUP2 MSTORE PUSH1 0x20 ADD PUSH1 0x2 DUP3 ADD SLOAD DUP2 MSTORE PUSH1 0x20 ADD PUSH1 0x3 DUP3 ADD SLOAD DUP2 MSTORE PUSH1 0x20 ADD PUSH1 0x4 DUP3 ADD SLOAD DUP2 MSTORE PUSH1 0x20 ADD PUSH1 0x5 DUP3 ADD DUP1 SLOAD DUP1 PUSH1 0x20 MUL PUSH1 0x20 ADD PUSH1 0x40 MLOAD SWAP1 DUP2 ADD PUSH1 0x40 MSTORE DUP1 SWAP3 SWAP2 SWAP1 DUP2 DUP2 MSTORE PUSH1 0x20 ADD DUP3 DUP1 SLOAD DUP1 ISZERO PUSH2 0x1E23 JUMPI PUSH1 0x20 MUL DUP3 ADD SWAP2 SWAP1 PUSH1 0x0 MSTORE PUSH1 0x20 PUSH1 0x0 KECCAK256 SWAP1 JUMPDEST DUP2 SLOAD DUP2 MSTORE PUSH1 0x20 ADD SWAP1 PUSH1 0x1 ADD SWAP1 DUP1 DUP4 GT PUSH2 0x1E0F JUMPI JUMPDEST POP POP POP POP POP DUP2 MSTORE PUSH1 0x20 ADD PUSH1 0x6 DUP3 ADD DUP1 SLOAD DUP1 PUSH1 0x20 MUL PUSH1 0x20 ADD PUSH1 0x40 MLOAD SWAP1 DUP2 ADD PUSH1 0x40 MSTORE DUP1 SWAP3 SWAP2 SWAP1 DUP2 DUP2 MSTORE PUSH1 0x20 ADD DUP3 DUP1 SLOAD DUP1 ISZERO PUSH2 0x1E7B JUMPI PUSH1 0x20 MUL DUP3 ADD SWAP2 SWAP1 PUSH1 0x0 MSTORE PUSH1 0x20 PUSH1 0x0 KECCAK256 SWAP1 JUMPDEST DUP2 SLOAD DUP2 MSTORE PUSH1 0x20 ADD SWAP1 PUSH1 0x1 ADD SWAP1 DUP1 DUP4 GT PUSH2 0x1E67 JUMPI JUMPDEST POP POP POP POP POP DUP2 MSTORE PUSH1 0x20 ADD PUSH1 0x7 DUP3 ADD DUP1 SLOAD DUP1 PUSH1 0x20 MUL PUSH1 0x20 ADD PUSH1 0x40 MLOAD SWAP1 DUP2 ADD PUSH1 0x40 MSTORE DUP1 SWAP3 SWAP2 SWAP1 DUP2 DUP2 MSTORE PUSH1 0x20 ADD DUP3 DUP1 SLOAD DUP1 ISZERO PUSH2 0x1ED3 JUMPI PUSH1 0x20 MUL DUP3 ADD SWAP2 SWAP1 PUSH1 0x0 MSTORE PUSH1 0x20 PUSH1 0x0 KECCAK256 SWAP1 JUMPDEST DUP2 SLOAD DUP2 MSTORE PUSH1 0x20 ADD SWAP1 PUSH1 0x1 ADD SWAP1 DUP1 DUP4 GT PUSH2 0x1EBF JUMPI JUMPDEST POP POP POP POP POP DUP2 MSTORE PUSH1 0x20 ADD PUSH1 0x8 DUP3 ADD PUSH1 0x0 SWAP1 SLOAD SWAP1 PUSH2 0x100 EXP SWAP1 DIV PUSH1 0xFF AND ISZERO ISZERO ISZERO ISZERO DUP2 MSTORE POP POP DUP2 MSTORE PUSH1 0x20 ADD SWAP1 PUSH1 0x1 ADD SWAP1 PUSH2 0x1C6E JUMP JUMPDEST POP POP POP POP SWAP1 POP SWAP1 JUMP JUMPDEST PUSH1 0x40 MLOAD DUP1 PUSH2 0x120 ADD PUSH1 0x40 MSTORE DUP1 PUSH1 0x60 DUP2 MSTORE PUSH1 0x20 ADD PUSH1 0x60 DUP2 MSTORE PUSH1 0x20 ADD PUSH1 0x0 DUP2 MSTORE PUSH1 0x20 ADD PUSH1 0x0 DUP2 MSTORE PUSH1 0x20 ADD PUSH1 0x0 DUP2 MSTORE PUSH1 0x20 ADD PUSH1 0x60 DUP2 MSTORE PUSH1 0x20 ADD PUSH1 0x60 DUP2 MSTORE PUSH1 0x20 ADD PUSH1 0x60 DUP2 MSTORE PUSH1 0x20 ADD PUSH1 0x0 ISZERO ISZERO DUP2 MSTORE POP SWAP1 JUMP JUMPDEST DUP3 DUP1 SLOAD DUP3 DUP3 SSTORE SWAP1 PUSH1 0x0 MSTORE PUSH1 0x20 PUSH1 0x0 KECCAK256 SWAP1 DUP2 ADD SWAP3 DUP3 ISZERO PUSH2 0x1F99 JUMPI SWAP2 PUSH1 0x20 MUL DUP3 ADD JUMPDEST DUP3 DUP2 GT ISZERO PUSH2 0x1F98 JUMPI DUP3 MLOAD DUP3 SSTORE SWAP2 PUSH1 0x20 ADD SWAP2 SWAP1 PUSH1 0x1 ADD SWAP1 PUSH2 0x1F7D JUMP JUMPDEST JUMPDEST POP SWAP1 POP PUSH2 0x1FA6 SWAP2 SWAP1 PUSH2 0x1FAA JUMP JUMPDEST POP SWAP1 JUMP JUMPDEST JUMPDEST DUP1 DUP3 GT ISZERO PUSH2 0x1FC3 JUMPI PUSH1 0x0 DUP2 PUSH1 0x0 SWAP1 SSTORE POP PUSH1 0x1 ADD PUSH2 0x1FAB JUMP JUMPDEST POP SWAP1 JUMP JUMPDEST PUSH1 0x0 PUSH1 0x40 MLOAD SWAP1 POP SWAP1 JUMP JUMPDEST PUSH1 0x0 DUP1 REVERT JUMPDEST PUSH1 0x0 DUP1 REVERT JUMPDEST PUSH1 0x0 DUP1 REVERT JUMPDEST PUSH1 0x0 DUP1 REVERT JUMPDEST PUSH1 0x0 PUSH1 0x1F NOT PUSH1 0x1F DUP4 ADD AND SWAP1 POP SWAP2 SWAP1 POP JUMP JUMPDEST PUSH32 0x4E487B7100000000000000000000000000000000000000000000000000000000 PUSH1 0x0 MSTORE PUSH1 0x41 PUSH1 0x4 MSTORE PUSH1 0x24 PUSH1 0x0 REVERT JUMPDEST PUSH2 0x202E DUP3 PUSH2 0x1FE5 JUMP JUMPDEST DUP2 ADD DUP2 DUP2 LT PUSH8 0xFFFFFFFFFFFFFFFF DUP3 GT OR ISZERO PUSH2 0x204D JUMPI PUSH2 0x204C PUSH2 0x1FF6 JUMP JUMPDEST JUMPDEST DUP1 PUSH1 0x40 MSTORE POP POP POP JUMP JUMPDEST PUSH1 0x0 PUSH2 0x2060 PUSH2 0x1FC7 JUMP JUMPDEST SWAP1 POP PUSH2 0x206C DUP3 DUP3 PUSH2 0x2025 JUMP JUMPDEST SWAP2 SWAP1 POP JUMP JUMPDEST PUSH1 0x0 PUSH8 0xFFFFFFFFFFFFFFFF DUP3 GT ISZERO PUSH2 0x208C JUMPI PUSH2 0x208B PUSH2 0x1FF6 JUMP JUMPDEST JUMPDEST PUSH2 0x2095 DUP3 PUSH2 0x1FE5 JUMP JUMPDEST SWAP1 POP PUSH1 0x20 DUP2 ADD SWAP1 POP SWAP2 SWAP1 POP JUMP JUMPDEST DUP3 DUP2 DUP4 CALLDATACOPY PUSH1 0x0 DUP4 DUP4 ADD MSTORE POP POP POP JUMP JUMPDEST PUSH1 0x0 PUSH2 0x20C4 PUSH2 0x20BF DUP5 PUSH2 0x2071 JUMP JUMPDEST PUSH2 0x2056 JUMP JUMPDEST SWAP1 POP DUP3 DUP2 MSTORE PUSH1 0x20 DUP2 ADD DUP5 DUP5 DUP5 ADD GT ISZERO PUSH2 0x20E0 JUMPI PUSH2 0x20DF PUSH2 0x1FE0 JUMP JUMPDEST JUMPDEST PUSH2 0x20EB DUP5 DUP3 DUP6 PUSH2 0x20A2 JUMP JUMPDEST POP SWAP4 SWAP3 POP POP POP JUMP JUMPDEST PUSH1 0x0 DUP3 PUSH1 0x1F DUP4 ADD SLT PUSH2 0x2108 JUMPI PUSH2 0x2107 PUSH2 0x1FDB JUMP JUMPDEST JUMPDEST DUP2 CALLDATALOAD PUSH2 0x2118 DUP5 DUP3 PUSH1 0x20 DUP7 ADD PUSH2 0x20B1 JUMP JUMPDEST SWAP2 POP POP SWAP3 SWAP2 POP POP JUMP JUMPDEST PUSH1 0x0 DUP2 SWAP1 POP SWAP2 SWAP1 POP JUMP JUMPDEST PUSH2 0x2134 DUP2 PUSH2 0x2121 JUMP JUMPDEST DUP2 EQ PUSH2 0x213F JUMPI PUSH1 0x0 DUP1 REVERT JUMPDEST POP JUMP JUMPDEST PUSH1 0x0 DUP2 CALLDATALOAD SWAP1 POP PUSH2 0x2151 DUP2 PUSH2 0x212B JUMP JUMPDEST SWAP3 SWAP2 POP POP JUMP JUMPDEST PUSH1 0x0 DUP1 PUSH1 0x40 DUP4 DUP6 SUB SLT ISZERO PUSH2 0x216E JUMPI PUSH2 0x216D PUSH2 0x1FD1 JUMP JUMPDEST JUMPDEST PUSH1 0x0 DUP4 ADD CALLDATALOAD PUSH8 0xFFFFFFFFFFFFFFFF DUP2 GT ISZERO PUSH2 0x218C JUMPI PUSH2 0x218B PUSH2 0x1FD6 JUMP JUMPDEST JUMPDEST PUSH2 0x2198 DUP6 DUP3 DUP7 ADD PUSH2 0x20F3 JUMP JUMPDEST SWAP3 POP POP PUSH1 0x20 PUSH2 0x21A9 DUP6 DUP3 DUP7 ADD PUSH2 0x2142 JUMP JUMPDEST SWAP2 POP POP SWAP3 POP SWAP3 SWAP1 POP JUMP JUMPDEST PUSH1 0x0 PUSH1 0x20 DUP3 DUP5 SUB SLT ISZERO PUSH2 0x21C9 JUMPI PUSH2 0x21C8 PUSH2 0x1FD1 JUMP JUMPDEST JUMPDEST PUSH1 0x0 PUSH2 0x21D7 DUP5 DUP3 DUP6 ADD PUSH2 0x2142 JUMP JUMPDEST SWAP2 POP POP SWAP3 SWAP2 POP POP JUMP JUMPDEST PUSH1 0x0 DUP2 MLOAD SWAP1 POP SWAP2 SWAP1 POP JUMP JUMPDEST PUSH1 0x0 DUP3 DUP3 MSTORE PUSH1 0x20 DUP3 ADD SWAP1 POP SWAP3 SWAP2 POP POP JUMP JUMPDEST PUSH1 0x0 JUMPDEST DUP4 DUP2 LT ISZERO PUSH2 0x221A JUMPI DUP1 DUP3 ADD MLOAD DUP2 DUP5 ADD MSTORE PUSH1 0x20 DUP2 ADD SWAP1 POP PUSH2 0x21FF JUMP JUMPDEST PUSH1 0x0 DUP5 DUP5 ADD MSTORE POP POP POP POP JUMP JUMPDEST PUSH1 0x0 PUSH2 0x2231 DUP3 PUSH2 0x21E0 JUMP JUMPDEST PUSH2 0x223B DUP2 DUP6 PUSH2 0x21EB JUMP JUMPDEST SWAP4 POP PUSH2 0x224B DUP2 DUP6 PUSH1 0x20 DUP7 ADD PUSH2 0x21FC JUMP JUMPDEST PUSH2 0x2254 DUP2 PUSH2 0x1FE5 JUMP JUMPDEST DUP5 ADD SWAP2 POP POP SWAP3 SWAP2 POP POP JUMP JUMPDEST PUSH2 0x2268 DUP2 PUSH2 0x2121 JUMP JUMPDEST DUP3 MSTORE POP POP JUMP JUMPDEST PUSH1 0x0 DUP2 ISZERO ISZERO SWAP1 POP SWAP2 SWAP1 POP JUMP JUMPDEST PUSH2 0x2283 DUP2 PUSH2 0x226E JUMP JUMPDEST DUP3 MSTORE POP POP JUMP JUMPDEST PUSH1 0x0 PUSH1 0xC0 DUP3 ADD SWAP1 POP DUP2 DUP2 SUB PUSH1 0x0 DUP4 ADD MSTORE PUSH2 0x22A3 DUP2 DUP10 PUSH2 0x2226 JUMP JUMPDEST SWAP1 POP DUP2 DUP2 SUB PUSH1 0x20 DUP4 ADD MSTORE PUSH2 0x22B7 DUP2 DUP9 PUSH2 0x2226 JUMP JUMPDEST SWAP1 POP PUSH2 0x22C6 PUSH1 0x40 DUP4 ADD DUP8 PUSH2 0x225F JUMP JUMPDEST PUSH2 0x22D3 PUSH1 0x60 DUP4 ADD DUP7 PUSH2 0x225F JUMP JUMPDEST PUSH2 0x22E0 PUSH1 0x80 DUP4 ADD DUP6 PUSH2 0x225F JUMP JUMPDEST PUSH2 0x22ED PUSH1 0xA0 DUP4 ADD DUP5 PUSH2 0x227A JUMP JUMPDEST SWAP8 SWAP7 POP POP POP POP POP POP POP JUMP JUMPDEST PUSH1 0x0 DUP1 PUSH1 0x40 DUP4 DUP6 SUB SLT ISZERO PUSH2 0x230F JUMPI PUSH2 0x230E PUSH2 0x1FD1 JUMP JUMPDEST JUMPDEST PUSH1 0x0 PUSH2 0x231D DUP6 DUP3 DUP7 ADD PUSH2 0x2142 JUMP JUMPDEST SWAP3 POP POP PUSH1 0x20 PUSH2 0x232E DUP6 DUP3 DUP7 ADD PUSH2 0x2142 JUMP JUMPDEST SWAP2 POP POP SWAP3 POP SWAP3 SWAP1 POP JUMP JUMPDEST PUSH1 0x0 DUP1 PUSH1 0x0 PUSH1 0x60 DUP5 DUP7 SUB SLT ISZERO PUSH2 0x2351 JUMPI PUSH2 0x2350 PUSH2 0x1FD1 JUMP JUMPDEST JUMPDEST PUSH1 0x0 PUSH2 0x235F DUP7 DUP3 DUP8 ADD PUSH2 0x2142 JUMP JUMPDEST SWAP4 POP POP PUSH1 0x20 PUSH2 0x2370 DUP7 DUP3 DUP8 ADD PUSH2 0x2142 JUMP JUMPDEST SWAP3 POP POP PUSH1 0x40 PUSH2 0x2381 DUP7 DUP3 DUP8 ADD PUSH2 0x2142 JUMP JUMPDEST SWAP2 POP POP SWAP3 POP SWAP3 POP SWAP3 JUMP JUMPDEST PUSH1 0x0 PUSH1 0x20 DUP3 ADD SWAP1 POP PUSH2 0x23A0 PUSH1 0x0 DUP4 ADD DUP5 PUSH2 0x225F JUMP JUMPDEST SWAP3 SWAP2 POP POP JUMP JUMPDEST PUSH1 0x0 DUP3 DUP3 MSTORE PUSH1 0x20 DUP3 ADD SWAP1 POP SWAP3 SWAP2 POP POP JUMP JUMPDEST PUSH1 0x0 PUSH2 0x23C2 DUP3 PUSH2 0x21E0 JUMP JUMPDEST PUSH2 0x23CC DUP2 DUP6 PUSH2 0x23A6 JUMP JUMPDEST SWAP4 POP PUSH2 0x23DC DUP2 DUP6 PUSH1 0x20 DUP7 ADD PUSH2 0x21FC JUMP JUMPDEST PUSH2 0x23E5 DUP2 PUSH2 0x1FE5 JUMP JUMPDEST DUP5 ADD SWAP2 POP POP SWAP3 SWAP2 POP POP JUMP JUMPDEST PUSH2 0x23F9 DUP2 PUSH2 0x2121 JUMP JUMPDEST DUP3 MSTORE POP POP JUMP JUMPDEST PUSH1 0x0 DUP2 MLOAD SWAP1 POP SWAP2 SWAP1 POP JUMP JUMPDEST PUSH1 0x0 DUP3 DUP3 MSTORE PUSH1 0x20 DUP3 ADD SWAP1 POP SWAP3 SWAP2 POP POP JUMP JUMPDEST PUSH1 0x0 DUP2 SWAP1 POP PUSH1 0x20 DUP3 ADD SWAP1 POP SWAP2 SWAP1 POP JUMP JUMPDEST PUSH1 0x0 PUSH2 0x2437 DUP4 DUP4 PUSH2 0x23F0 JUMP JUMPDEST PUSH1 0x20 DUP4 ADD SWAP1 POP SWAP3 SWAP2 POP POP JUMP JUMPDEST PUSH1 0x0 PUSH1 0x20 DUP3 ADD SWAP1 POP SWAP2 SWAP1 POP JUMP JUMPDEST PUSH1 0x0 PUSH2 0x245B DUP3 PUSH2 0x23FF JUMP JUMPDEST PUSH2 0x2465 DUP2 DUP6 PUSH2 0x240A JUMP JUMPDEST SWAP4 POP PUSH2 0x2470 DUP4 PUSH2 0x241B JUMP JUMPDEST DUP1 PUSH1 0x0 JUMPDEST DUP4 DUP2 LT ISZERO PUSH2 0x24A1 JUMPI DUP2 MLOAD PUSH2 0x2488 DUP9 DUP3 PUSH2 0x242B JUMP JUMPDEST SWAP8 POP PUSH2 0x2493 DUP4 PUSH2 0x2443 JUMP JUMPDEST SWAP3 POP POP PUSH1 0x1 DUP2 ADD SWAP1 POP PUSH2 0x2474 JUMP JUMPDEST POP DUP6 SWAP4 POP POP POP POP SWAP3 SWAP2 POP POP JUMP JUMPDEST PUSH2 0x24B7 DUP2 PUSH2 0x226E JUMP JUMPDEST DUP3 MSTORE POP POP JUMP JUMPDEST PUSH1 0x0 PUSH2 0x120 DUP4 ADD PUSH1 0x0 DUP4 ADD MLOAD DUP5 DUP3 SUB PUSH1 0x0 DUP7 ADD MSTORE PUSH2 0x24DB DUP3 DUP3 PUSH2 0x23B7 JUMP JUMPDEST SWAP2 POP POP PUSH1 0x20 DUP4 ADD MLOAD DUP5 DUP3 SUB PUSH1 0x20 DUP7 ADD MSTORE PUSH2 0x24F5 DUP3 DUP3 PUSH2 0x23B7 JUMP JUMPDEST SWAP2 POP POP PUSH1 0x40 DUP4 ADD MLOAD PUSH2 0x250A PUSH1 0x40 DUP7 ADD DUP3 PUSH2 0x23F0 JUMP JUMPDEST POP PUSH1 0x60 DUP4 ADD MLOAD PUSH2 0x251D PUSH1 0x60 DUP7 ADD DUP3 PUSH2 0x23F0 JUMP JUMPDEST POP PUSH1 0x80 DUP4 ADD MLOAD PUSH2 0x2530 PUSH1 0x80 DUP7 ADD DUP3 PUSH2 0x23F0 JUMP JUMPDEST POP PUSH1 0xA0 DUP4 ADD MLOAD DUP5 DUP3 SUB PUSH1 0xA0 DUP7 ADD MSTORE PUSH2 0x2548 DUP3 DUP3 PUSH2 0x2450 JUMP JUMPDEST SWAP2 POP POP PUSH1 0xC0 DUP4 ADD MLOAD DUP5 DUP3 SUB PUSH1 0xC0 DUP7 ADD MSTORE PUSH2 0x2562 DUP3 DUP3 PUSH2 0x2450 JUMP JUMPDEST SWAP2 POP POP PUSH1 0xE0 DUP4 ADD MLOAD DUP5 DUP3 SUB PUSH1 0xE0 DUP7 ADD MSTORE PUSH2 0x257C DUP3 DUP3 PUSH2 0x2450 JUMP JUMPDEST SWAP2 POP POP PUSH2 0x100 DUP4 ADD MLOAD PUSH2 0x2593 PUSH2 0x100 DUP7 ADD DUP3 PUSH2 0x24AE JUMP JUMPDEST POP DUP1 SWAP2 POP POP SWAP3 SWAP2 POP POP JUMP JUMPDEST PUSH1 0x0 PUSH1 0x20 DUP3 ADD SWAP1 POP DUP2 DUP2 SUB PUSH1 0x0 DUP4 ADD MSTORE PUSH2 0x25B8 DUP2 DUP5 PUSH2 0x24BD JUMP JUMPDEST SWAP1 POP SWAP3 SWAP2 POP POP JUMP JUMPDEST PUSH1 0x0 DUP3 DUP3 MSTORE PUSH1 0x20 DUP3 ADD SWAP1 POP SWAP3 SWAP2 POP POP JUMP JUMPDEST PUSH1 0x0 PUSH2 0x25DC DUP3 PUSH2 0x23FF JUMP JUMPDEST PUSH2 0x25E6 DUP2 DUP6 PUSH2 0x25C0 JUMP JUMPDEST SWAP4 POP PUSH2 0x25F1 DUP4 PUSH2 0x241B JUMP JUMPDEST DUP1 PUSH1 0x0 JUMPDEST DUP4 DUP2 LT ISZERO PUSH2 0x2622 JUMPI DUP2 MLOAD PUSH2 0x2609 DUP9 DUP3 PUSH2 0x242B JUMP JUMPDEST SWAP8 POP PUSH2 0x2614 DUP4 PUSH2 0x2443 JUMP JUMPDEST SWAP3 POP POP PUSH1 0x1 DUP2 ADD SWAP1 POP PUSH2 0x25F5 JUMP JUMPDEST POP DUP6 SWAP4 POP POP POP POP SWAP3 SWAP2 POP POP JUMP JUMPDEST PUSH1 0x0 PUSH1 0x20 DUP3 ADD SWAP1 POP DUP2 DUP2 SUB PUSH1 0x0 DUP4 ADD MSTORE PUSH2 0x2649 DUP2 DUP5 PUSH2 0x25D1 JUMP JUMPDEST SWAP1 POP SWAP3 SWAP2 POP POP JUMP JUMPDEST PUSH1 0x0 DUP1 PUSH1 0x0 DUP1 PUSH1 0x80 DUP6 DUP8 SUB SLT ISZERO PUSH2 0x266B JUMPI PUSH2 0x266A PUSH2 0x1FD1 JUMP JUMPDEST JUMPDEST PUSH1 0x0 DUP6 ADD CALLDATALOAD PUSH8 0xFFFFFFFFFFFFFFFF DUP2 GT ISZERO PUSH2 0x2689 JUMPI PUSH2 0x2688 PUSH2 0x1FD6 JUMP JUMPDEST JUMPDEST PUSH2 0x2695 DUP8 DUP3 DUP9 ADD PUSH2 0x20F3 JUMP JUMPDEST SWAP5 POP POP PUSH1 0x20 DUP6 ADD CALLDATALOAD PUSH8 0xFFFFFFFFFFFFFFFF DUP2 GT ISZERO PUSH2 0x26B6 JUMPI PUSH2 0x26B5 PUSH2 0x1FD6 JUMP JUMPDEST JUMPDEST PUSH2 0x26C2 DUP8 DUP3 DUP9 ADD PUSH2 0x20F3 JUMP JUMPDEST SWAP4 POP POP PUSH1 0x40 PUSH2 0x26D3 DUP8 DUP3 DUP9 ADD PUSH2 0x2142 JUMP JUMPDEST SWAP3 POP POP PUSH1 0x60 PUSH2 0x26E4 DUP8 DUP3 DUP9 ADD PUSH2 0x2142 JUMP JUMPDEST SWAP2 POP POP SWAP3 SWAP6 SWAP2 SWAP5 POP SWAP3 POP JUMP JUMPDEST PUSH1 0x0 DUP2 MLOAD SWAP1 POP SWAP2 SWAP1 POP JUMP JUMPDEST PUSH1 0x0 DUP3 DUP3 MSTORE PUSH1 0x20 DUP3 ADD SWAP1 POP SWAP3 SWAP2 POP POP JUMP JUMPDEST PUSH1 0x0 DUP2 SWAP1 POP PUSH1 0x20 DUP3 ADD SWAP1 POP SWAP2 SWAP1 POP JUMP JUMPDEST PUSH1 0x0 PUSH1 0x60 DUP4 ADD PUSH1 0x0 DUP4 ADD MLOAD PUSH2 0x2734 PUSH1 0x0 DUP7 ADD DUP3 PUSH2 0x23F0 JUMP JUMPDEST POP PUSH1 0x20 DUP4 ADD MLOAD DUP5 DUP3 SUB PUSH1 0x20 DUP7 ADD MSTORE PUSH2 0x274C DUP3 DUP3 PUSH2 0x23B7 JUMP JUMPDEST SWAP2 POP POP PUSH1 0x40 DUP4 ADD MLOAD PUSH2 0x2761 PUSH1 0x40 DUP7 ADD DUP3 PUSH2 0x23F0 JUMP JUMPDEST POP DUP1 SWAP2 POP POP SWAP3 SWAP2 POP POP JUMP JUMPDEST PUSH1 0x0 PUSH2 0x2778 DUP4 DUP4 PUSH2 0x271C JUMP JUMPDEST SWAP1 POP SWAP3 SWAP2 POP POP JUMP JUMPDEST PUSH1 0x0 PUSH1 0x20 DUP3 ADD SWAP1 POP SWAP2 SWAP1 POP JUMP JUMPDEST PUSH1 0x0 PUSH2 0x2798 DUP3 PUSH2 0x26F0 JUMP JUMPDEST PUSH2 0x27A2 DUP2 DUP6 PUSH2 0x26FB JUMP JUMPDEST SWAP4 POP DUP4 PUSH1 0x20 DUP3 MUL DUP6 ADD PUSH2 0x27B4 DUP6 PUSH2 0x270C JUMP JUMPDEST DUP1 PUSH1 0x0 JUMPDEST DUP6 DUP2 LT ISZERO PUSH2 0x27F0 JUMPI DUP5 DUP5 SUB DUP10 MSTORE DUP2 MLOAD PUSH2 0x27D1 DUP6 DUP3 PUSH2 0x276C JUMP JUMPDEST SWAP5 POP PUSH2 0x27DC DUP4 PUSH2 0x2780 JUMP JUMPDEST SWAP3 POP PUSH1 0x20 DUP11 ADD SWAP10 POP POP PUSH1 0x1 DUP2 ADD SWAP1 POP PUSH2 0x27B8 JUMP JUMPDEST POP DUP3 SWAP8 POP DUP8 SWAP6 POP POP POP POP POP POP SWAP3 SWAP2 POP POP JUMP JUMPDEST PUSH1 0x0 PUSH1 0x20 DUP3 ADD SWAP1 POP DUP2 DUP2 SUB PUSH1 0x0 DUP4 ADD MSTORE PUSH2 0x281C DUP2 DUP5 PUSH2 0x278D JUMP JUMPDEST SWAP1 POP SWAP3 SWAP2 POP POP JUMP JUMPDEST PUSH1 0x0 PUSH1 0x60 DUP3 ADD SWAP1 POP PUSH2 0x2839 PUSH1 0x0 DUP4 ADD DUP7 PUSH2 0x225F JUMP JUMPDEST DUP2 DUP2 SUB PUSH1 0x20 DUP4 ADD MSTORE PUSH2 0x284B DUP2 DUP6 PUSH2 0x2226 JUMP JUMPDEST SWAP1 POP PUSH2 0x285A PUSH1 0x40 DUP4 ADD DUP5 PUSH2 0x225F JUMP JUMPDEST SWAP5 SWAP4 POP POP POP POP JUMP JUMPDEST PUSH1 0x0 PUSH1 0x40 DUP3 ADD SWAP1 POP DUP2 DUP2 SUB PUSH1 0x0 DUP4 ADD MSTORE PUSH2 0x287C DUP2 DUP6 PUSH2 0x25D1 JUMP JUMPDEST SWAP1 POP DUP2 DUP2 SUB PUSH1 0x20 DUP4 ADD MSTORE PUSH2 0x2890 DUP2 DUP5 PUSH2 0x25D1 JUMP JUMPDEST SWAP1 POP SWAP4 SWAP3 POP POP POP JUMP JUMPDEST PUSH1 0x0 DUP2 MLOAD SWAP1 POP SWAP2 SWAP1 POP JUMP JUMPDEST PUSH1 0x0 DUP3 DUP3 MSTORE PUSH1 0x20 DUP3 ADD SWAP1 POP SWAP3 SWAP2 POP POP JUMP JUMPDEST PUSH1 0x0 DUP2 SWAP1 POP PUSH1 0x20 DUP3 ADD SWAP1 POP SWAP2 SWAP1 POP JUMP JUMPDEST PUSH1 0x0 PUSH2 0x120 DUP4 ADD PUSH1 0x0 DUP4 ADD MLOAD DUP5 DUP3 SUB PUSH1 0x0 DUP7 ADD MSTORE PUSH2 0x28E3 DUP3 DUP3 PUSH2 0x23B7 JUMP JUMPDEST SWAP2 POP POP PUSH1 0x20 DUP4 ADD MLOAD DUP5 DUP3 SUB PUSH1 0x20 DUP7 ADD MSTORE PUSH2 0x28FD DUP3 DUP3 PUSH2 0x23B7 JUMP JUMPDEST SWAP2 POP POP PUSH1 0x40 DUP4 ADD MLOAD PUSH2 0x2912 PUSH1 0x40 DUP7 ADD DUP3 PUSH2 0x23F0 JUMP JUMPDEST POP PUSH1 0x60 DUP4 ADD MLOAD PUSH2 0x2925 PUSH1 0x60 DUP7 ADD DUP3 PUSH2 0x23F0 JUMP JUMPDEST POP PUSH1 0x80 DUP4 ADD MLOAD PUSH2 0x2938 PUSH1 0x80 DUP7 ADD DUP3 PUSH2 0x23F0 JUMP JUMPDEST POP PUSH1 0xA0 DUP4 ADD MLOAD DUP5 DUP3 SUB PUSH1 0xA0 DUP7 ADD MSTORE PUSH2 0x2950 DUP3 DUP3 PUSH2 0x2450 JUMP JUMPDEST SWAP2 POP POP PUSH1 0xC0 DUP4 ADD MLOAD DUP5 DUP3 SUB PUSH1 0xC0 DUP7 ADD MSTORE PUSH2 0x296A DUP3 DUP3 PUSH2 0x2450 JUMP JUMPDEST SWAP2 POP POP PUSH1 0xE0 DUP4 ADD MLOAD DUP5 DUP3 SUB PUSH1 0xE0 DUP7 ADD MSTORE PUSH2 0x2984 DUP3 DUP3 PUSH2 0x2450 JUMP JUMPDEST SWAP2 POP POP PUSH2 0x100 DUP4 ADD MLOAD PUSH2 0x299B PUSH2 0x100 DUP7 ADD DUP3 PUSH2 0x24AE JUMP JUMPDEST POP DUP1 SWAP2 POP POP SWAP3 SWAP2 POP POP JUMP JUMPDEST PUSH1 0x0 PUSH2 0x29B2 DUP4 DUP4 PUSH2 0x28C5 JUMP JUMPDEST SWAP1 POP SWAP3 SWAP2 POP POP JUMP JUMPDEST PUSH1 0x0 PUSH1 0x20 DUP3 ADD SWAP1 POP SWAP2 SWAP1 POP JUMP JUMPDEST PUSH1 0x0 PUSH2 0x29D2 DUP3 PUSH2 0x2899 JUMP JUMPDEST PUSH2 0x29DC DUP2 DUP6 PUSH2 0x28A4 JUMP JUMPDEST SWAP4 POP DUP4 PUSH1 0x20 DUP3 MUL DUP6 ADD PUSH2 0x29EE DUP6 PUSH2 0x28B5 JUMP JUMPDEST DUP1 PUSH1 0x0 JUMPDEST DUP6 DUP2 LT ISZERO PUSH2 0x2A2A JUMPI DUP5 DUP5 SUB DUP10 MSTORE DUP2 MLOAD PUSH2 0x2A0B DUP6 DUP3 PUSH2 0x29A6 JUMP JUMPDEST SWAP5 POP PUSH2 0x2A16 DUP4 PUSH2 0x29BA JUMP JUMPDEST SWAP3 POP PUSH1 0x20 DUP11 ADD SWAP10 POP POP PUSH1 0x1 DUP2 ADD SWAP1 POP PUSH2 0x29F2 JUMP JUMPDEST POP DUP3 SWAP8 POP DUP8 SWAP6 POP POP POP POP POP POP SWAP3 SWAP2 POP POP JUMP JUMPDEST PUSH1 0x0 PUSH1 0x20 DUP3 ADD SWAP1 POP DUP2 DUP2 SUB PUSH1 0x0 DUP4 ADD MSTORE PUSH2 0x2A56 DUP2 DUP5 PUSH2 0x29C7 JUMP JUMPDEST SWAP1 POP SWAP3 SWAP2 POP POP JUMP JUMPDEST PUSH1 0x0 DUP2 SWAP1 POP SWAP3 SWAP2 POP POP JUMP JUMPDEST PUSH1 0x0 PUSH2 0x2A74 DUP3 PUSH2 0x21E0 JUMP JUMPDEST PUSH2 0x2A7E DUP2 DUP6 PUSH2 0x2A5E JUMP JUMPDEST SWAP4 POP PUSH2 0x2A8E DUP2 DUP6 PUSH1 0x20 DUP7 ADD PUSH2 0x21FC JUMP JUMPDEST DUP1 DUP5 ADD SWAP2 POP POP SWAP3 SWAP2 POP POP JUMP JUMPDEST PUSH1 0x0 PUSH2 0x2AA6 DUP3 DUP5 PUSH2 0x2A69 JUMP JUMPDEST SWAP2 POP DUP2 SWAP1 POP SWAP3 SWAP2 POP POP JUMP JUMPDEST PUSH32 0x4E487B7100000000000000000000000000000000000000000000000000000000 PUSH1 0x0 MSTORE PUSH1 0x32 PUSH1 0x4 MSTORE PUSH1 0x24 PUSH1 0x0 REVERT JUMPDEST PUSH32 0x4E487B7100000000000000000000000000000000000000000000000000000000 PUSH1 0x0 MSTORE PUSH1 0x22 PUSH1 0x4 MSTORE PUSH1 0x24 PUSH1 0x0 REVERT JUMPDEST PUSH1 0x0 PUSH1 0x2 DUP3 DIV SWAP1 POP PUSH1 0x1 DUP3 AND DUP1 PUSH2 0x2B27 JUMPI PUSH1 0x7F DUP3 AND SWAP2 POP JUMPDEST PUSH1 0x20 DUP3 LT DUP2 SUB PUSH2 0x2B3A JUMPI PUSH2 0x2B39 PUSH2 0x2AE0 JUMP JUMPDEST JUMPDEST POP SWAP2 SWAP1 POP JUMP JUMPDEST PUSH1 0x0 DUP2 SWAP1 POP DUP2 PUSH1 0x0 MSTORE PUSH1 0x20 PUSH1 0x0 KECCAK256 SWAP1 POP SWAP2 SWAP1 POP JUMP JUMPDEST PUSH1 0x0 DUP2 SLOAD PUSH2 0x2B62 DUP2 PUSH2 0x2B0F JUMP JUMPDEST PUSH2 0x2B6C DUP2 DUP7 PUSH2 0x2A5E JUMP JUMPDEST SWAP5 POP PUSH1 0x1 DUP3 AND PUSH1 0x0 DUP2 EQ PUSH2 0x2B87 JUMPI PUSH1 0x1 DUP2 EQ PUSH2 0x2B9C JUMPI PUSH2 0x2BCF JUMP JUMPDEST PUSH1 0xFF NOT DUP4 AND DUP7 MSTORE DUP2 ISZERO ISZERO DUP3 MUL DUP7 ADD SWAP4 POP PUSH2 0x2BCF JUMP JUMPDEST PUSH2 0x2BA5 DUP6 PUSH2 0x2B40 JUMP JUMPDEST PUSH1 0x0 JUMPDEST DUP4 DUP2 LT ISZERO PUSH2 0x2BC7 JUMPI DUP2 SLOAD DUP2 DUP10 ADD MSTORE PUSH1 0x1 DUP3 ADD SWAP2 POP PUSH1 0x20 DUP2 ADD SWAP1 POP PUSH2 0x2BA8 JUMP JUMPDEST DUP4 DUP9 ADD SWAP6 POP POP POP JUMPDEST POP POP POP SWAP3 SWAP2 POP POP JUMP JUMPDEST PUSH1 0x0 PUSH2 0x2BE4 DUP3 DUP5 PUSH2 0x2B55 JUMP JUMPDEST SWAP2 POP DUP2 SWAP1 POP SWAP3 SWAP2 POP POP JUMP JUMPDEST PUSH32 0x796F7520616C72656164792068617665207468697320636F7572736520616E64 PUSH1 0x0 DUP3 ADD MSTORE PUSH32 0x20696620796F752077616E7420746F2075706461746520697427732066656573 PUSH1 0x20 DUP3 ADD MSTORE PUSH32 0x207468656E206368616E6765206974277320666565732E000000000000000000 PUSH1 0x40 DUP3 ADD MSTORE POP JUMP JUMPDEST PUSH1 0x0 PUSH2 0x2C71 PUSH1 0x57 DUP4 PUSH2 0x21EB JUMP JUMPDEST SWAP2 POP PUSH2 0x2C7C DUP3 PUSH2 0x2BEF JUMP JUMPDEST PUSH1 0x60 DUP3 ADD SWAP1 POP SWAP2 SWAP1 POP JUMP JUMPDEST PUSH1 0x0 PUSH1 0x20 DUP3 ADD SWAP1 POP DUP2 DUP2 SUB PUSH1 0x0 DUP4 ADD MSTORE PUSH2 0x2CA0 DUP2 PUSH2 0x2C64 JUMP JUMPDEST SWAP1 POP SWAP2 SWAP1 POP JUMP JUMPDEST PUSH32 0x4E487B7100000000000000000000000000000000000000000000000000000000 PUSH1 0x0 MSTORE PUSH1 0x11 PUSH1 0x4 MSTORE PUSH1 0x24 PUSH1 0x0 REVERT JUMPDEST PUSH1 0x0 PUSH2 0x2CE1 DUP3 PUSH2 0x2121 JUMP JUMPDEST SWAP2 POP PUSH32 0xFFFFFFFFFFFFFFFFFFFFFFFFFFFFFFFFFFFFFFFFFFFFFFFFFFFFFFFFFFFFFFFF DUP3 SUB PUSH2 0x2D13 JUMPI PUSH2 0x2D12 PUSH2 0x2CA7 JUMP JUMPDEST JUMPDEST PUSH1 0x1 DUP3 ADD SWAP1 POP SWAP2 SWAP1 POP JUMP JUMPDEST PUSH1 0x0 PUSH1 0x20 PUSH1 0x1F DUP4 ADD DIV SWAP1 POP SWAP2 SWAP1 POP JUMP JUMPDEST PUSH1 0x0 DUP3 DUP3 SHL SWAP1 POP SWAP3 SWAP2 POP POP JUMP JUMPDEST PUSH1 0x0 PUSH1 0x8 DUP4 MUL PUSH2 0x2D6B PUSH32 0xFFFFFFFFFFFFFFFFFFFFFFFFFFFFFFFFFFFFFFFFFFFFFFFFFFFFFFFFFFFFFFFF DUP3 PUSH2 0x2D2E JUMP JUMPDEST PUSH2 0x2D75 DUP7 DUP4 PUSH2 0x2D2E JUMP JUMPDEST SWAP6 POP DUP1 NOT DUP5 AND SWAP4 POP DUP1 DUP7 AND DUP5 OR SWAP3 POP POP POP SWAP4 SWAP3 POP POP POP JUMP JUMPDEST PUSH1 0x0 DUP2 SWAP1 POP SWAP2 SWAP1 POP JUMP JUMPDEST PUSH1 0x0 PUSH2 0x2DB2 PUSH2 0x2DAD PUSH2 0x2DA8 DUP5 PUSH2 0x2121 JUMP JUMPDEST PUSH2 0x2D8D JUMP JUMPDEST PUSH2 0x2121 JUMP JUMPDEST SWAP1 POP SWAP2 SWAP1 POP JUMP JUMPDEST PUSH1 0x0 DUP2 SWAP1 POP SWAP2 SWAP1 POP JUMP JUMPDEST PUSH2 0x2DCC DUP4 PUSH2 0x2D97 JUMP JUMPDEST PUSH2 0x2DE0 PUSH2 0x2DD8 DUP3 PUSH2 0x2DB9 JUMP JUMPDEST DUP5 DUP5 SLOAD PUSH2 0x2D3B JUMP JUMPDEST DUP3 SSTORE POP POP POP POP JUMP JUMPDEST PUSH1 0x0 SWAP1 JUMP JUMPDEST PUSH2 0x2DF5 PUSH2 0x2DE8 JUMP JUMPDEST PUSH2 0x2E00 DUP2 DUP5 DUP5 PUSH2 0x2DC3 JUMP JUMPDEST POP POP POP JUMP JUMPDEST JUMPDEST DUP2 DUP2 LT ISZERO PUSH2 0x2E24 JUMPI PUSH2 0x2E19 PUSH1 0x0 DUP3 PUSH2 0x2DED JUMP JUMPDEST PUSH1 0x1 DUP2 ADD SWAP1 POP PUSH2 0x2E06 JUMP JUMPDEST POP POP JUMP JUMPDEST PUSH1 0x1F DUP3 GT ISZERO PUSH2 0x2E69 JUMPI PUSH2 0x2E3A DUP2 PUSH2 0x2B40 JUMP JUMPDEST PUSH2 0x2E43 DUP5 PUSH2 0x2D1E JUMP JUMPDEST DUP2 ADD PUSH1 0x20 DUP6 LT ISZERO PUSH2 0x2E52 JUMPI DUP2 SWAP1 POP JUMPDEST PUSH2 0x2E66 PUSH2 0x2E5E DUP6 PUSH2 0x2D1E JUMP JUMPDEST DUP4 ADD DUP3 PUSH2 0x2E05 JUMP JUMPDEST POP POP JUMPDEST POP POP POP JUMP JUMPDEST PUSH1 0x0 DUP3 DUP3 SHR SWAP1 POP SWAP3 SWAP2 POP POP JUMP JUMPDEST PUSH1 0x0 PUSH2 0x2E8C PUSH1 0x0 NOT DUP5 PUSH1 0x8 MUL PUSH2 0x2E6E JUMP JUMPDEST NOT DUP1 DUP4 AND SWAP2 POP POP SWAP3 SWAP2 POP POP JUMP JUMPDEST PUSH1 0x0 PUSH2 0x2EA5 DUP4 DUP4 PUSH2 0x2E7B JUMP JUMPDEST SWAP2 POP DUP3 PUSH1 0x2 MUL DUP3 OR SWAP1 POP SWAP3 SWAP2 POP POP JUMP JUMPDEST PUSH2 0x2EBE DUP3 PUSH2 0x21E0 JUMP JUMPDEST PUSH8 0xFFFFFFFFFFFFFFFF DUP2 GT ISZERO PUSH2 0x2ED7 JUMPI PUSH2 0x2ED6 PUSH2 0x1FF6 JUMP JUMPDEST JUMPDEST PUSH2 0x2EE1 DUP3 SLOAD PUSH2 0x2B0F JUMP JUMPDEST PUSH2 0x2EEC DUP3 DUP3 DUP6 PUSH2 0x2E28 JUMP JUMPDEST PUSH1 0x0 PUSH1 0x20 SWAP1 POP PUSH1 0x1F DUP4 GT PUSH1 0x1 DUP2 EQ PUSH2 0x2F1F JUMPI PUSH1 0x0 DUP5 ISZERO PUSH2 0x2F0D JUMPI DUP3 DUP8 ADD MLOAD SWAP1 POP JUMPDEST PUSH2 0x2F17 DUP6 DUP3 PUSH2 0x2E99 JUMP JUMPDEST DUP7 SSTORE POP PUSH2 0x2F7F JUMP JUMPDEST PUSH1 0x1F NOT DUP5 AND PUSH2 0x2F2D DUP7 PUSH2 0x2B40 JUMP JUMPDEST PUSH1 0x0 JUMPDEST DUP3 DUP2 LT ISZERO PUSH2 0x2F55 JUMPI DUP5 DUP10 ADD MLOAD DUP3 SSTORE PUSH1 0x1 DUP3 ADD SWAP2 POP PUSH1 0x20 DUP6 ADD SWAP5 POP PUSH1 0x20 DUP2 ADD SWAP1 POP PUSH2 0x2F30 JUMP JUMPDEST DUP7 DUP4 LT ISZERO PUSH2 0x2F72 JUMPI DUP5 DUP10 ADD MLOAD PUSH2 0x2F6E PUSH1 0x1F DUP10 AND DUP3 PUSH2 0x2E7B JUMP JUMPDEST DUP4 SSTORE POP JUMPDEST PUSH1 0x1 PUSH1 0x2 DUP9 MUL ADD DUP9 SSTORE POP POP POP JUMPDEST POP POP POP POP POP POP JUMP JUMPDEST PUSH32 0x436F7572736520616464207375636365737366756C6C79210000000000000000 PUSH1 0x0 DUP3 ADD MSTORE POP JUMP JUMPDEST PUSH1 0x0 PUSH2 0x2FBD PUSH1 0x18 DUP4 PUSH2 0x21EB JUMP JUMPDEST SWAP2 POP PUSH2 0x2FC8 DUP3 PUSH2 0x2F87 JUMP JUMPDEST PUSH1 0x20 DUP3 ADD SWAP1 POP SWAP2 SWAP1 POP JUMP JUMPDEST PUSH1 0x0 PUSH1 0x20 DUP3 ADD SWAP1 POP DUP2 DUP2 SUB PUSH1 0x0 DUP4 ADD MSTORE PUSH2 0x2FEC DUP2 PUSH2 0x2FB0 JUMP JUMPDEST SWAP1 POP SWAP2 SWAP1 POP JUMP JUMPDEST PUSH32 0x436F7572736520616C72656164792061737369676E656420746F207468652073 PUSH1 0x0 DUP3 ADD MSTORE PUSH32 0x747564656E740000000000000000000000000000000000000000000000000000 PUSH1 0x20 DUP3 ADD MSTORE POP JUMP JUMPDEST PUSH1 0x0 PUSH2 0x304F PUSH1 0x26 DUP4 PUSH2 0x21EB JUMP JUMPDEST SWAP2 POP PUSH2 0x305A DUP3 PUSH2 0x2FF3 JUMP JUMPDEST PUSH1 0x40 DUP3 ADD SWAP1 POP SWAP2 SWAP1 POP JUMP JUMPDEST PUSH1 0x0 PUSH1 0x20 DUP3 ADD SWAP1 POP DUP2 DUP2 SUB PUSH1 0x0 DUP4 ADD MSTORE PUSH2 0x307E DUP2 PUSH2 0x3042 JUMP JUMPDEST SWAP1 POP SWAP2 SWAP1 POP JUMP JUMPDEST PUSH32 0x436F757273652061737369676E6564207375636365737366756C6C7900000000 PUSH1 0x0 DUP3 ADD MSTORE POP JUMP JUMPDEST PUSH1 0x0 PUSH2 0x30BB PUSH1 0x1C DUP4 PUSH2 0x21EB JUMP JUMPDEST SWAP2 POP PUSH2 0x30C6 DUP3 PUSH2 0x3085 JUMP JUMPDEST PUSH1 0x20 DUP3 ADD SWAP1 POP SWAP2 SWAP1 POP JUMP JUMPDEST PUSH1 0x0 PUSH1 0x20 DUP3 ADD SWAP1 POP DUP2 DUP2 SUB PUSH1 0x0 DUP4 ADD MSTORE PUSH2 0x30EA DUP2 PUSH2 0x30AE JUMP JUMPDEST SWAP1 POP SWAP2 SWAP1 POP JUMP JUMPDEST PUSH1 0x0 PUSH2 0x30FC DUP3 PUSH2 0x2121 JUMP JUMPDEST SWAP2 POP PUSH2 0x3107 DUP4 PUSH2 0x2121 JUMP JUMPDEST SWAP3 POP DUP3 DUP3 ADD SWAP1 POP DUP1 DUP3 GT ISZERO PUSH2 0x311F JUMPI PUSH2 0x311E PUSH2 0x2CA7 JUMP JUMPDEST JUMPDEST SWAP3 SWAP2 POP POP JUMP JUMPDEST PUSH1 0x0 DUP2 SWAP1 POP SWAP2 SWAP1 POP JUMP JUMPDEST PUSH2 0x3140 PUSH2 0x313B DUP3 PUSH2 0x2121 JUMP JUMPDEST PUSH2 0x3125 JUMP JUMPDEST DUP3 MSTORE POP POP JUMP JUMPDEST PUSH1 0x0 PUSH2 0x3152 DUP3 DUP8 PUSH2 0x2A69 JUMP JUMPDEST SWAP2 POP PUSH2 0x315E DUP3 DUP7 PUSH2 0x2A69 JUMP JUMPDEST SWAP2 POP PUSH2 0x316A DUP3 DUP6 PUSH2 0x312F JUMP JUMPDEST PUSH1 0x20 DUP3 ADD SWAP2 POP PUSH2 0x317A DUP3 DUP5 PUSH2 0x312F JUMP JUMPDEST PUSH1 0x20 DUP3 ADD SWAP2 POP DUP2 SWAP1 POP SWAP6 SWAP5 POP POP POP POP POP JUMP JUMPDEST PUSH1 0x0 PUSH2 0x3198 DUP3 DUP8 PUSH2 0x2B55 JUMP JUMPDEST SWAP2 POP PUSH2 0x31A4 DUP3 DUP7 PUSH2 0x2B55 JUMP JUMPDEST SWAP2 POP PUSH2 0x31B0 DUP3 DUP6 PUSH2 0x312F JUMP JUMPDEST PUSH1 0x20 DUP3 ADD SWAP2 POP PUSH2 0x31C0 DUP3 DUP5 PUSH2 0x312F JUMP JUMPDEST PUSH1 0x20 DUP3 ADD SWAP2 POP DUP2 SWAP1 POP SWAP6 SWAP5 POP POP POP POP POP JUMP JUMPDEST PUSH32 0x412073747564656E742077697468207468652073616D65206E616D652C206164 PUSH1 0x0 DUP3 ADD MSTORE PUSH32 0x64726573732C206167652C20616E64206E756D62657220616C72656164792065 PUSH1 0x20 DUP3 ADD MSTORE PUSH32 0x78697374732E0000000000000000000000000000000000000000000000000000 PUSH1 0x40 DUP3 ADD MSTORE POP JUMP JUMPDEST PUSH1 0x0 PUSH2 0x3254 PUSH1 0x46 DUP4 PUSH2 0x21EB JUMP JUMPDEST SWAP2 POP PUSH2 0x325F DUP3 PUSH2 0x31D2 JUMP JUMPDEST PUSH1 0x60 DUP3 ADD SWAP1 POP SWAP2 SWAP1 POP JUMP JUMPDEST PUSH1 0x0 PUSH1 0x20 DUP3 ADD SWAP1 POP DUP2 DUP2 SUB PUSH1 0x0 DUP4 ADD MSTORE PUSH2 0x3283 DUP2 PUSH2 0x3247 JUMP JUMPDEST SWAP1 POP SWAP2 SWAP1 POP JUMP JUMPDEST PUSH32 0x53747564656E7420616464207375636365737366756C6C792100000000000000 PUSH1 0x0 DUP3 ADD MSTORE POP JUMP JUMPDEST PUSH1 0x0 PUSH2 0x32C0 PUSH1 0x19 DUP4 PUSH2 0x21EB JUMP JUMPDEST SWAP2 POP PUSH2 0x32CB DUP3 PUSH2 0x328A JUMP JUMPDEST PUSH1 0x20 DUP3 ADD SWAP1 POP SWAP2 SWAP1 POP JUMP JUMPDEST PUSH1 0x0 PUSH1 0x20 DUP3 ADD SWAP1 POP DUP2 DUP2 SUB PUSH1 0x0 DUP4 ADD MSTORE PUSH2 0x32EF DUP2 PUSH2 0x32B3 JUMP JUMPDEST SWAP1 POP SWAP2 SWAP1 POP JUMP JUMPDEST PUSH32 0x496E636F72726563742066656520616D6F756E74000000000000000000000000 PUSH1 0x0 DUP3 ADD MSTORE POP JUMP JUMPDEST PUSH1 0x0 PUSH2 0x332C PUSH1 0x14 DUP4 PUSH2 0x21EB JUMP JUMPDEST SWAP2 POP PUSH2 0x3337 DUP3 PUSH2 0x32F6 JUMP JUMPDEST PUSH1 0x20 DUP3 ADD SWAP1 POP SWAP2 SWAP1 POP JUMP JUMPDEST PUSH1 0x0 PUSH1 0x20 DUP3 ADD SWAP1 POP DUP2 DUP2 SUB PUSH1 0x0 DUP4 ADD MSTORE PUSH2 0x335B DUP2 PUSH2 0x331F JUMP JUMPDEST SWAP1 POP SWAP2 SWAP1 POP JUMP JUMPDEST PUSH32 0x5061796D656E7420646F6E65207375636365737366756C6C7921000000000000 PUSH1 0x0 DUP3 ADD MSTORE POP JUMP JUMPDEST PUSH1 0x0 PUSH2 0x3398 PUSH1 0x1A DUP4 PUSH2 0x21EB JUMP JUMPDEST SWAP2 POP PUSH2 0x33A3 DUP3 PUSH2 0x3362 JUMP JUMPDEST PUSH1 0x20 DUP3 ADD SWAP1 POP SWAP2 SWAP1 POP JUMP JUMPDEST PUSH1 0x0 PUSH1 0x20 DUP3 ADD SWAP1 POP DUP2 DUP2 SUB PUSH1 0x0 DUP4 ADD MSTORE PUSH2 0x33C7 DUP2 PUSH2 0x338B JUMP JUMPDEST SWAP1 POP SWAP2 SWAP1 POP JUMP INVALID LOG2 PUSH5 0x6970667358 0x22 SLT KECCAK256 0xDA 0xA8 SSTORE CREATE MSTORE8 DUP5 DUP4 0xBE SWAP3 PUSH4 0x44353B74 0xDC SELFDESTRUCT ADDRESS SELFBALANCE 0xE5 SWAP14 0x1F DUP5 ADD SWAP5 PUSH29 0xE7B247E9D2C1864736F6C634300081100330000000000000000000000 "},"methodIdentifiers":{"addCourse(string,uint256)":"0247ce57","addGrades(uint256,uint256,uint256)":"164d95dd","addStudent(string,string,uint256,uint256)":"78529ead","assignCourse(uint256,uint256)":"0d83015a","checkTotalFee(uint256)":"2449dc4d","courseId()":"6e0f634b","courses(uint256)":"96f979d2","getAllStudents()":"e9e30927","getAssignedCourses(uint256)":"669c3bd2","getAssignedCoursesWithGrades(uint256)":"d72a94f9","getContractBalance()":"6f9fb98a","getStudent(uint256)":"642f9163","markAttendance(uint256,uint256,uint256)":"bf452c59","payCoursesFees(uint256)":"d1b06f7d","studentId()":"7b487c57","studentPayments(uint256)":"bab0a350","students(uint256)":"06ead22e","viewCourses()":"8d85c141"}}}}}